:020000040800F2
:10000000A898002031070008E12500088D090008A4
:100010003B250008890B0008FD2F000800000000A8
:10002000000000000000000000000000550700086C
:100030008D0B000800000000ED070008FD07000818
:100040004B0700084B0700084B0700084B07000848
:100050004B0700084B0700084B0700084B07000838
:100060004B0700084B0700084B0700084B07000828
:100070004B0700084B0700084B0700084B07000818
:100080004B0700084B0700084B0700084B07000808
:100090004B0700084B0700084B0700084B070008F8
:1000A0004B0700084B0700084B0700084B070008E8
:1000B000F12800084B0700084B0700084B07000811
:1000C0004B0700084B0700084B0700084B070008C8
:1000D0004B070008B52E00084B0700084B07000827
:1000E0004B0700084B0700084B0700084B070008A8
:1000F0004B0700084B0700084B0700084B07000898
:100100004B0700084B0700084B0700084B07000887
:100110004B0700084B0700084B070008A5290008FB
:100120004B0700084B0700084B0700084B07000867
:100130004B0700084B0700084B0700084B07000857
:100140004B0700084B0700084B0700084B07000847
:100150004B0700084B0700084B0700084B07000837
:100160004B0700084B0700084B0700084B07000827
:100170004B0700084B0700084B0700080000000071
:100180004B0700084B070008DFF80CD000F0CEFB4F
:1001900000480047FD390008A89800200246D2E830
:1001A0004F0FC2E8431F03B1F9E77047024652E818
:1001B000000F40EA010042E8000303B1F7E770478F
:1001C00010B5024652E8000F20EA010442E800435D
:1001D00003B1F7E710BD10B5024652E8000F00EA80
:1001E00001048C4203D0BFF32F8F002010BD20EA02
:1001F000010442E8004303B1EFE710BD10B5024629
:1002000052E8000F084203D1BFF32F8F002010BD2A
:1002100020EA010442E8004303B1F1E710BD0246C1
:1002200052E8000F411C42E8001303B1F8E77047A1
:1002300010B50246D2E85F0F814202D8BFF32F8F7C
:1002400010BD441CC2E8534F03B1F3E710BD10B515
:100250000246D2E85F0F441CA14200D80024C2E845
:10026000534F03B1F5E710BD024652E8000F411E9F
:1002700042E8001303B1F8E77047024652E8000F66
:1002800010B9BFF32F8F7047411E42E8001303B12E
:10029000F4E770470246D2E85F0F10B9BFF32F8F23
:1002A0007047411EC2E8531F03B1F4E7704702468E
:1002B00052E8000F10B9BFF32F8F7047016842E872
:1002C000001303B1F4E7704702680A60BFF35F8F61
:1002D00050E8002F0B689342F6D140E8001303B1B9
:1002E000F2E770470246D2E84F0FC2E8431F03B15E
:1002F000F9E77047024652E8000F40EA010042E881
:10030000000303B1F7E7704710B5024652E8000F4B
:1003100020EA010442E8004303B1F7E710BD10B53D
:10032000024652E8000F00EA01048C4203D0BFF3FA
:100330002F8F002010BD20EA010442E8004303B1E2
:10034000EFE710BD10B5024652E8000F084203D196
:10035000BFF32F8F002010BD20EA010442E80043C4
:1003600003B1F1E710BD024652E8000F411C42E81C
:10037000001303B1F8E7704710B50246D2E85F0FEB
:10038000814202D8BFF32F8F10BD441CC2E8534FE7
:1003900003B1F3E710BD10B50246D2E85F0F441C6D
:1003A000A14200D80024C2E8534F03B1F5E710BDC5
:1003B000024652E8000F411E42E8001303B1F8E77D
:1003C0007047024652E8000F10B9BFF32F8F7047F5
:1003D000411E42E8001303B1F4E770470246D2E839
:1003E0005F0F10B9BFF32F8F7047411EC2E8531F34
:1003F00003B1F4E77047024652E8000F10B9BFF3AB
:100400002F8F7047016842E8001303B1F4E770478B
:1004100002680A60BFF35F8F50E8002F0B689342B9
:10042000F6D140E8001303B1F2E770470246D2E884
:100430004F0FC2E8431F03B1F9E77047024652E885
:10044000000F40EA010042E8000303B1F7E77047FC
:1004500010B5024652E8000F20EA010442E80043CA
:1004600003B1F7E710BD10B5024652E8000F00EAED
:1004700001048C4203D0BFF32F8F002010BD20EA6F
:10048000010442E8004303B1EFE710BD10B5024696
:1004900052E8000F084203D1BFF32F8F002010BD98
:1004A00020EA010442E8004303B1F1E710BD02462F
:1004B00052E8000F411C42E8001303B1F8E770470F
:1004C00010B50246D2E85F0F814202D8BFF32F8FEA
:1004D00010BD441CC2E8534F03B1F3E710BD10B583
:1004E0000246D2E85F0F441CA14200D80024C2E8B3
:1004F000534F03B1F5E710BD024652E8000F411E0D
:1005000042E8001303B1F8E77047024652E8000FD3
:1005100010B9BFF32F8F7047411E42E8001303B19B
:10052000F4E770470246D2E85F0F10B9BFF32F8F90
:100530007047411EC2E8531F03B1F4E770470246FB
:1005400052E8000F10B9BFF32F8F7047016842E8DF
:10055000001303B1F4E7704702680A60BFF35F8FCE
:1005600050E8002F0B689342F6D140E8001303B126
:10057000F2E770470246D2E84F0FC2E8431F03B1CB
:10058000F9E77047024652E8000F40EA010042E8EE
:10059000000303B1F7E7704710B5024652E8000FB9
:1005A00020EA010442E8004303B1F7E710BD10B5AB
:1005B000024652E8000F00EA01048C4203D0BFF368
:1005C0002F8F002010BD20EA010442E8004303B150
:1005D000EFE710BD10B5024652E8000F084203D104
:1005E000BFF32F8F002010BD20EA010442E8004332
:1005F00003B1F1E710BD024652E8000F411C42E88A
:10060000001303B1F8E7704710B50246D2E85F0F58
:10061000814202D8BFF32F8F10BD441CC2E8534F54
:1006200003B1F3E710BD10B50246D2E85F0F441CDA
:10063000A14200D80024C2E8534F03B1F5E710BD32
:10064000024652E8000F411E42E8001303B1F8E7EA
:100650007047024652E8000F10B9BFF32F8F704762
:10066000411E42E8001303B1F4E770470246D2E8A6
:100670005F0F10B9BFF32F8F7047411EC2E8531FA1
:1006800003B1F4E77047024652E8000F10B9BFF318
:100690002F8F7047016842E8001303B1F4E77047F9
:1006A00002680A60BFF35F8F50E8002F0B68934227
:1006B000F6D140E8001303B1F2E770470246D2E8F2
:1006C0004F0F411CC2E8431F03B1F8E770470246D1
:1006D00052E8000F411C42E8001303B1F8E77047ED
:1006E000024652E8000F42E8001303B1F9E77047F1
:1006F000024652E8000F830103D3BFF32F8F00207F
:10070000704700F00040084342E8000303B1F0E7FF
:100710007047024652E8000F800103D2BFF32F8FCB
:100720000020704742E8001303B1F3E7012070474F
:100730000648804706480047FEE7FEE7FEE7FEE77B
:10074000FEE7FEE7FEE7FEE7FEE7FEE775280008A6
:10075000890100081EF0040F0CBFEFF30880EFF3CF
:100760000980816911F8021C91BB01B590E80F1056
:10077000E047BDE800508CE80300244B93E80600F6
:10078000914208BF704741B91EF0100F10D12049A7
:10079000086820F0010008600AE02CE9F00F1EF064
:1007A000100F08BF2CED108AC1F838C081F822E084
:1007B0001A6092F82210906B61F0FF0E1EF0100F7D
:1007C00008BFB0EC108AB0E8F00F80F309887047DA
:1007D000104A13689942FAD801B552F821C00FC8DF
:1007E000E047BDE80050CCF80000704701B503F0C9
:1007F00077FCBDE80140EFF3098CBEE701B503F0DB
:100800006BFFBDE80140EFF3098CB6E7D48500200B
:1008100034EF00E0C85400082DE9F05F05460020E1
:1008200092469B4688460646814640241BE0284661
:1008300041464746224600F069F853465A46C01AD8
:10084000914110D311461846224600F050F82D1A57
:1008500067EB01084F4622460120002100F047F8CF
:1008600017EB00094E41201EA4F10104DFDC4846CD
:1008700031462A464346BDE8F09F40EA01039B0704
:1008800003D009E008C9121F08C0042AFAD203E005
:1008900011F8013B00F8013B521EF9D27047D2B269
:1008A00001E000F8012B491EFBD270470022F6E759
:1008B00010B513460A4604461946FFF7F0FF2046D6
:1008C00010BD30B50B46014600202022012409E06E
:1008D00021FA02F59D4205D303FA02F5491B04FAF9
:1008E00002F52844151EA2F10102F1DC30BD202AD8
:1008F00004DB203A00FA02F1002070479140C2F177
:10090000200320FA03F3194390407047202A04DBA8
:10091000203A21FA02F00021704721FA02F3D04078
:10092000C2F120029140084319467047064C074D1A
:1009300006E0E06840F0010394E8070098471034AF
:10094000AC42F6D3FFF724FCF45500082456000807
:1009500030B58C1810F8012B12F00F0301D110F8EC
:10096000013B120906D110F8012B03E010F8015BDE
:1009700001F8015B5B1EF9D101E001F8013B521E59
:10098000FBD1A142E6D3002030BD00001EF0040FD1
:100990000CBFEFF30880EFF3098001F02DBC0000DD
:1009A00010B5074A0021074803F04CFF06490860CC
:1009B000064A0021064803F045FF0649086010BDBD
:1009C000C8530008D90900085C850020EC530008D2
:1009D000CD0A00085085002000BF03F063F80446EC
:1009E00006E0022002F08CFE6434204603F03CF85E
:1009F000F7E7000000BF01F043FB02F099FC0B4A4F
:100A000000210B4803F01EFF0A49086001F0EAFDCF
:100A1000FFF7C6FF03F046F8044605E001F06AFE62
:100A20000A34204603F020F8F8E70000805300085D
:100A3000390A00085485002002E0C82002F0F6FFC1
:100A40001B4800780028F8D01A4800686421B0FBE1
:100A5000F1F0184908600846006820B99FED160AB1
:100A6000164880ED000A1348006864214843144981
:100A7000086000BF12480068124908600020104951
:100A80000860104890ED000AF8EE400A094890ED21
:100A9000000AB8EE400A80EE801A9FED0B0A30EE95
:100AA000410A064880ED000A642002F0BFFFE1E73A
:100AB0006485002070850020000000006C85002007
:100AC00068850020748500200000C84200200AE0EC
:100AD0001D4909881D4A42F820101B490988491CF4
:100AE000194A1180401C0A28F2DB4FF4FA7002F018
:100AF0009DFF002507E0154850F82520294614A041
:100B000002F07EFA6D1C0A2DF5DB1BE002F0F6FB0D
:100B10000446A4B1012C04D0042C06D0072C0CD11F
:100B200007E010A002F06CFA08E011A002F068FAE9
:100B300004E012A002F064FA00E000BF00BF14203D
:100B400002F074FFE2E7000028000010000000102F
:100B50002043434D427566315B25645D203D202571
:100B6000640D0A004B31BCFCB0B4CFC20D0A0000CA
:100B70004B32BCFCB0B4CFC20D0A00004B33BCFCFE
:100B8000B0B4CFC20D0A000000BFFEE7704701B944
:100B9000704700BFFEE700000146074A12780AB915
:100BA000002008E0054AC1F3C623D25CC1F302234A
:100BB000DA4002F001007047809400200094002089
:100BC00070B500BF0C48866900F048FA054600BFC2
:100BD000294609481830FFF783FD044600BFB44298
:100BE000F0D1A54206D200BF03481030FFF76FFDD9
:100BF00000BF00BF284670BD809400202DE9F04161
:100C000004460D4616462046FFF7C6FF10B90120E0
:100C1000BDE8F081FFF7D4FF0746A4B200BFEFF3B1
:100C2000058010B14FF4002000E00020044344F0A0
:100C3000407033462A46394600F0CAF8804640469E
:100C4000E6E72DE9F05F04460F4690469946DDF849
:100C500028A02046FFF7A0FF10B90120BDE8F09FB3
:100C6000FFF7AEFF8346A4B200BFEFF3058010B1DB
:100C70004FF4002000E00020044300F073FC4FF428
:100C8000E02101EA004544EA050141F08070434655
:100C90003A46594600F09CF806460EB90020DDE7BA
:100CA00045F0010141F0007053464A46594600F0B4
:100CB0008FF806463046D1E72DE9FC4704468846C2
:100CC0001546B8F1000F01D0802D02D90020BDE8F3
:100CD000FC872046FFF760FF08B90120F7E7FFF720
:100CE0006FFF8246A4B200BFEFF3058010B14FF44E
:100CF000002000E000200443464645B900231A4680
:100D00005146204600F064F807463846DFE7082DD4
:100D100016D80020009001902A4631466846FFF719
:100D2000ACFD4FF4E02000EA0540044344F040707D
:100D30005146DDE9002300F04BF807463846C6E788
:100D400000F010FC4FF4E02101EA00493068009007
:100D5000706801900836083D44EA090444F0807048
:100D60005146DDE9002300F033F807460FB90020B3
:100D7000ADE74FF6017049EA000410E030680090DA
:100D8000706801900836083D51462046DDE9002391
:100D900000F01EF80746641C0FB9002097E7082DE5
:100DA000ECD80020009001902A4631466846FFF7B3
:100DB00064FD24F47F4444EA052444F00070514665
:100DC000DDE9002300F004F8074638467FE700001D
:100DD0002DE9FF4F81B0884691469A464FF0070BA8
:100DE00051E000BF2E48FFF772FC064606F03F00B8
:100DF0002C4901EB0014B0094FF4700101EA0051D5
:100E00000091DDE9001008434FF0805101EAD8015C
:100E100008434FF0005101EA990108434FF0804127
:100E200001EA5A01084340F04065294604F10C00EC
:100E3000FFF75EFC054605F0806010B385F0806525
:100E400085F0004505F0004728F000403843206059
:100E500029F00040384360602AF000403843A06029
:100E6000294604F10C00FFF754FC48B100BF0C48C0
:100E7000001DFFF72CFC00BF012005B0BDE8F08F7E
:100E800004E0ABF1010BBBF1000FAAD100BF00BF22
:100E900003480830FFF71BFC00BF0020EDE700000F
:100EA0008494002000900020F0B506460C461546BC
:100EB000FF2C01D2FF2D01D30020F0BD0022002322
:100EC0001AE0012098403040A0B1214610E002EB2A
:100ED000D1000B4F385C01F0070C012707FA0CF723
:100EE000384302EBD107DFF818C00CF80700491CA3
:100EF000A942ECD920325B1C042BE2D30120DCE7B1
:100F0000009400202DE9F05F824689460020414987
:100F1000087080214048FFF7C9FC18213F4802F0C3
:100F20007FFC80463B48006A3D49884208D008461D
:100F3000384908620846A0F802800120C8610FE025
:100F400034484088404506D03248A0F8028001204D
:100F50003049C86104E02F48C069401C2D49C86170
:100F60002C48C06901280BD100202A4948704860EC
:100F70008860C8604FF480612A48FFF797FC0FE053
:100F800000270BE0274800EB0715E86800F08060B9
:100F900018B1E86820F04060E8607F1C402FF1D372
:100FA0001C48C06901280FD100F064F804461CB148
:100FB00000F05AF8064600E0002616484661002078
:100FC00014498861086102E000F054F80446ECB16D
:100FD000FE2200215046FFF767FFEF2211460F2047
:100FE000FFF762FFFE2211460420FFF75DFFFFF7C7
:100FF000E7FD8346074800235946C2690A48FFF7C0
:10100000E7FEB9F1000F01D000F010F82046BDE86E
:10101000F09F00008094002000940020CC54000831
:101020006B27A5E10090002000FF000310B50948E0
:10103000007808B1012010BD012006490870FFF7B3
:10104000BFFD044600231A4621460348FFF7C0FEB1
:101050000120F0E78094002001FF00030148406870
:1010600070470000001000E0014800687047000071
:10107000A48500200648006840F08070044908609C
:101080000448006840F001000249086001207047F0
:10109000FCED00E0001000E010B5044600222146FF
:1010A0000148FFF7ABFD10BD01F3010010B5044688
:1010B000002221460148FFF7A1FD10BD05F3020003
:1010C00010B50446002221464FF47340FFF796FD09
:1010D00010BD000010B50446002221460148FFF76C
:1010E0008DFD10BD03F3020010B504460022214619
:1010F0000148FFF783FD10BD02F3010010B504465F
:10110000002221460148FFF779FD10BD04F30200DB
:1011100010B50446002221460148FFF76FFD10BDBF
:101120000DF5020010B50446002221464FF471402F
:10113000FFF764FD10BD000010B5044600222146F3
:101140000148FFF75BFD10BD13F1010010B500224F
:1011500011460248FFF752FD10BD000001F10100E9
:1011600010B5002211460248FFF748FD10BD0000EF
:1011700002F1020010B5002211460248FFF73EFDC1
:1011800010BD000007F1010010B500221146024811
:10119000FFF734FD10BD000008F10200F8B5044669
:1011A0000D4616461F4633462A46214602480097FA
:1011B000FFF747FDF8BD000001F0020070B50446DE
:1011C0000D462A4621460248FFF718FD70BD000073
:1011D00004F00200F8B504460D46164600203346DA
:1011E0002A46214600900248FFF72BFDF8BD00007B
:1011F00005F00200F8B504460D4616461F46334674
:101200002A46214602480097FFF71BFDF8BD000063
:1012100003F00200F8B504460D461646002033469A
:101220002A46214600900248FFF70BFDF8BD00005A
:1012300002F00200F8B504460D461646002033467B
:101240002A46214600904FF43C30FFF7FAFCF8BDE7
:1012500010B50446002221460148FFF7CFFC10BD1F
:1012600008F9020070B504460D462A462146024898
:10127000FFF7C4FC70BD000003FA020070B504461D
:101280000D462A4621464FF47A40FFF7B7FC70BD61
:10129000F8B504460D4616461F4633462A462146F3
:1012A00002480097FFF7CDFCF8BD00000CFA0100E2
:1012B000F8B504460D461646002033462A46214618
:1012C00000900248FFF7BDFCF8BD00000DFA0200D7
:1012D00010B50446002221460148FFF78FFC10BDDF
:1012E0000EFA020070B504460D462A462146024811
:1012F000FFF784FC70BD000009FA020070B50446D7
:101300000D462A4621460248FFF778FC70BD0000D2
:101310000AFA0200F8B504460D4616460020334688
:101320002A46214600900248FFF78BFCF8BD0000DA
:1013300001FA010070B504460D462A4621460248CE
:10134000FFF75CFC70BD00000BFA020070B50446AC
:101350000D462A4621460248FFF750FC70BD0000AA
:1013600010FA0200F8B504460D4616461F463346ED
:101370002A46214602480097FFF763FCF8BD0000AB
:1013800006FA0100F8B504460D461646002033461D
:101390002A46214600900248FFF753FCF8BD0000A2
:1013A00007FA020010B50446002221460148FFF763
:1013B00025FC10BD08FA020070B504460D462A4609
:1013C00021460248FFF71AFC70BD00000FFA020028
:1013D00010B50446002221460148FFF70FFC10BD5E
:1013E00008F7020070B504460D462A462146024819
:1013F000FFF704FC70BD000009F7020070B5044659
:101400000D462A4621460248FFF7F8FB70BD000052
:101410000CF7020010B50446002221460148FFF7F0
:10142000EDFB10BD08F8020070B504460D462A46D3
:1014300021460248FFF7E2FB70BD000016F20300F0
:1014400070B504460D4616462EB132462146054873
:10145000FFF7D4FB05E02A46214602482938FFF76A
:10146000CDFB70BD2CF2020010B5044600222146CF
:101470000148FFF7C3FB10BD1CF2020070B5044623
:101480000D462A4621464FF47240FFF7B7FB70BD68
:1014900010B5002211460248FFF7B0FB10BD000056
:1014A0001AF20100F8B504460D4616461F463346AB
:1014B0002A46214602480097FFF7C3FBF8BD00000B
:1014C00009F4020010B50446002221460148FFF746
:1014D00095FB10BD08F4020010B504460022214619
:1014E0000148FFF78BFB10BD15F20200F8B504466A
:1014F0000D461646002033462A46214600900248F3
:10150000FFF79FFBF8BD000001F2010010B5044693
:10151000002221460148FFF771FB10BD18F20300BD
:1015200010B50446002221460148FFF767FB10BDB5
:1015300019F2020070B504460D462A4621460248BB
:10154000FFF75CFB70BD000017F2030070B50446A6
:101550000D462A4621460248FFF750FB70BD0000A9
:1015600001F6020010B50248FFF7A8F810BD000010
:10157000819400200120014908607047000427423F
:10158000F8B502460B460025002400200021DCE0CF
:10159000012606FA01F51E6806EA0504AC4273D17D
:1015A0005E68022E02D05E68122E13D1CF0802F1BF
:1015B000200656F827004E07F70E0F26BE40B04310
:1015C0004F07FF0E1E69BE403043CF0802F12006D0
:1015D00046F8270010684F000326BE40B0431E792E
:1015E00006F003064F00BE40304310605E68012ED7
:1015F00008D05E68022E05D05E68112E02D05E68AB
:10160000122E13D190684F000326BE40B0434F0006
:10161000DE68BE4030439060506801268E40B04383
:101620001E79C6F300168E4030435060D0684F00DC
:101630000326BE40B0434F009E68BE403043D0609A
:101640005E6806F08056B6F1805F7DD100BF00264F
:101650000096404E366846F480463E4F3E603E4619
:10166000366806F48046009600BF00BF3A4E8F08E9
:1016700056F827008E07370F0F26BE40B043374E6F
:10168000B24202D1002624E05EE0354EB24201D1E2
:1016900001261EE0334EB24201D1022619E0324E3D
:1016A000B24201D1032614E0304EB24201D10426E9
:1016B0000FE02F4EB24201D105260AE02D4EB24274
:1016C00001D1062605E02C4EB24201D1072600E0EA
:1016D00008268F073F0FBE4030431F4E8F0846F845
:1016E0002700264E3068A0435E6806F48036B6F5C3
:1016F000803F00D12043214E3060361D3068A0432A
:101700005E6806F40036B6F5003F00D120431B4E5C
:10171000361D3060361D3068A0435E6806F48016C2
:10172000B6F5801F00D12043144E08363060361DB8
:101730003068A0435E6806F40016B6F5001F00D1BD
:1017400020430E4E0C363060491C1029FFF420AFA8
:10175000F8BD000044380240083801400000024053
:101760000004024000080240000C02400010024049
:101770000014024000180240001C0240003C0140DE
:101780000148006870470000988500200348006801
:10179000034909780844014908607047988500208A
:1017A000A085002010B50D48006840F400700B497A
:1017B00008600846006840F48060086008460068D9
:1017C00040F480700860032000F0C2F80F2000F0A1
:1017D00007F800F06DF8002010BD0000003C02404A
:1017E000F0B587B007460025002623482349086046
:1017F000084600F05DFC18B12D2121A0FFF7C7F9C4
:1018000000220521372000F064F8372000F051F85D
:1018100000BF002000902448006840F020002249CA
:1018200008600846006800F02000009000BF00BF7C
:1018300001A902A800F060F9059D1DB900F084F926
:10184000044602E000F080F944001848B4FBF0F0D0
:10185000461E40F2E7310948C1604660002101613F
:10186000816000F048FC20B9044800F075FC07B026
:10187000F0BD0120FBE7000000140040708F002045
:101880002E2E5C2E2E5C557365725C73746D333234
:10189000663478785F68616C5F74696D65626173E6
:1018A000655F74696D2E63004038024040420F004E
:1018B000704701460846002809DB00F01F0301229B
:1018C0009A4043099B0003F1E023C3F8002100BFC5
:1018D00070472DE9F05F80460D461646002701F05F
:1018E0009FFB074639462A46334601F00700C0F100
:1018F000070ABAF1040F02D94FF0040A01E0C0F15F
:10190000070AD14600F1040ABAF1070F02D24FF0DC
:10191000000A01E0A0F1030AD4464FF0010A0AFAD6
:1019200009FAAAF1010A0AEA020A0AFA0CFA4FF0C5
:10193000010B0BFA0CFBABF1010B0BEA030B4AEAB0
:101940000B042146404601F073FBBDE8F09F000008
:1019500000BF00F00702064B19684FF6FF0319405D
:10196000044B0B4343EA0221014B196000BF70474F
:101970000CED00E00000FA0570B504460D460CB908
:10198000012070BD5848006800F00F00A84209D23D
:1019900055490D700846006800F00F00A84201D0BC
:1019A0000120EEE7207800F0020002281DD1207807
:1019B00000F00400042805D14C48006840F4E050D1
:1019C0004A490860207800F00800082805D14748F7
:1019D000006840F46040454908604448006820F0D1
:1019E000F000A168084341490860207800F0010038
:1019F000A8B36068012807D13C4808380068C0F3E4
:101A00004040B8B90120BCE76068022802D0606895
:101A1000032807D1354808380068C0F3406048B94A
:101A20000120AEE7314808380068C0F3400008B92B
:101A30000120A6E72D48006820F0030061680843F4
:101A40002A490860FFF79CFE064609E0FFF798FE6A
:101A5000801B41F28831884202D9032091E707E0D8
:101A60002248006800F00C006168B0EB810FEDD1F6
:101A70001D48006800F00F00A84209D91A490D70EE
:101A80000846006800F00F00A84201D0012078E766
:101A9000207800F00400042807D11448006820F4DE
:101AA000E050E168084311490860207800F0080020
:101AB000082808D10D48006820F46040216940EAF8
:101AC000C1000A49086000F05FF808490968C1F3DD
:101AD0000311074A515CC840064908600F20FFF710
:101AE0007FFE00204DE70000003C02400838024025
:101AF00050540008A48500200F2202600D4A12688D
:101B000002F0030242600B4A126802F0F0028260A7
:101B1000084A126802F4E052C260064A126802F4EF
:101B20006042D2080261044A126802F00F020A60A1
:101B30007047000008380240003C0240014800683D
:101B400070470000A485002000B5FFF7F7FF0449A7
:101B50000968C1F38221034A515CC84000BD0000FE
:101B6000083802406054000800B5FFF7E7FF044959
:101B70000968C1F34231034A515CC84000BD00000E
:101B800008380240605400082DE9F0470024002581
:101B90000026A1462548006800F00C0020B104286A
:101BA00005D008283AD105E0DFF8849039E0DFF865
:101BB000849036E01D48001F006800F03F041B4879
:101BC000001F006800F4800078B11A481749091F07
:101BD0000968C1F38811A0FB017001462246002369
:101BE0003846FEF719FE05460EE011480F49091F59
:101BF0000968C1F38811A0FB017001462246002349
:101C00003846FEF709FE05460848001F0068C0F385
:101C10000140401C4600B5FBF6F902E0DFF81090E9
:101C200000BF00BF4846BDE8F0870000083802400A
:101C30000024F40000127A00F8B504460CB9012023
:101C4000F8BD207800F00100002874D0F948006841
:101C500000F00C0004280DD0F648006800F00C00DD
:101C6000082813D1F348001F006800F48000B0F585
:101C7000800F0BD1EF4808380068C0F340400028BF
:101C800059D06068002856D10120D9E700BF6068AC
:101C9000B0F5803F08D1E7480838006840F480304C
:101CA000E449083908601EE06068B0F5A02F0DD146
:101CB000E0480838006840F48020DE4908390860B0
:101CC0000846006840F4803008600CE0D9480838C5
:101CD000006820F48030D749083908600846006859
:101CE00020F48020086000BF606890B1FFF748FDD5
:101CF000054606E0FFF744FD401B642801D9032098
:101D00009EE7CC4808380068C0F340400028F1D076
:101D100011E0FFF735FD054606E0FFF731FD401BFA
:101D2000642801D903208BE7C24808380068C0F353
:101D300040400028F1D1207800F0020002285FD155
:101D4000BC48006800F00C0058B1BA48006800F0C8
:101D50000C0008281CD1B748001F006800F4800060
:101D6000B0B9B44808380068C0F3400020B1E0685A
:101D7000012801D0012063E7AE480838006820F050
:101D8000F800216940EAC100AA490839086037E033
:101D9000E06800B30120A8490860FFF7F1FC0546A0
:101DA00006E0FFF7EDFC401B022801D9032047E7BE
:101DB000A04808380068C0F340000028F1D09D48D2
:101DC0000838006820F0F800216940EAC10099490C
:101DD0000839086014E0002097490860FFF7D0FC3C
:101DE000054606E0FFF7CCFC401B022801D9032082
:101DF00026E7904808380068C0F340000028F1D179
:101E0000207800F0080008282CD16069A8B10120D2
:101E10008A490860FFF7B4FC054606E0FFF7B0FC0E
:101E2000401B022801D903200AE782486C30006871
:101E3000C0F340000028F1D014E000207F49086082
:101E4000FFF79EFC054606E0FFF79AFC401B0228C0
:101E500001D90320F4E677486C300068C0F34000F5
:101E60000028F1D1207800F00400042870D1002669
:101E700070483830006800F0805090B900BF0020F2
:101E800000906C483830006840F080506949383123
:101E900008600846006800F08050009000BF00BF56
:101EA00001266748006800F48070B0B96448006893
:101EB00040F4807062490860FFF762FC054606E066
:101EC000FFF75EFC401B022801D90320B8E65C48FE
:101ED000006800F480700028F2D000BFA0680128DC
:101EE00008D154486830006840F001005149683119
:101EF00008601DE0A06805280DD14E4868300068D4
:101F000040F004004B49683108600846006840F022
:101F1000010008600CE047486830006820F00100CC
:101F20004449683108600846006820F004000860F1
:101F300000BFA068A8B1FFF723FC054609E0FFF742
:101F40001FFC401B41F28831884202D9032077E60A
:101F500026E0384868300068C0F340000028EED022
:101F600013E0FFF70DFC054608E0FFF709FC401BF6
:101F700041F28831884201D9032061E62D4868305A
:101F80000068C0F340000028EFD1012E07D1294896
:101F90003830006820F0805026493831086000BF92
:101FA000A069B8B32348006800F00C0008285ED090
:101FB000A069022846D100201F490866FFF7E0FB10
:101FC000054606E0FFF7DCFB401B022801D9032091
:101FD00036E6184808380068C0F340600028F1D1A0
:101FE000D4E907010843616A40EA81110122A06A2D
:101FF000C2EB500041EA00412C20005D41EA006044
:102000000C49091F086001200B490866FFF7B8FB5F
:10201000054607E02DE0FFF7B3FB401B022801D97E
:1020200003200DE6034808380068C0F3406000282C
:10203000F1D01EE00838024000004742800E4742BF
:102040000070004000200C490866FFF799FB054628
:1020500006E0FFF795FB401B022801D90320EFE5BE
:1020600006480068C0F340600028F2D101E001207A
:10207000E6E50020E4E500000000474200380240A9
:1020800004480068C06840F0010002490968C8605F
:1020900070470000708F002004480068C06820F07E
:1020A000010002490968C86070470000708F002075
:1020B00010B50446022084F83D0000BF2068006A85
:1020C00041F21111084050B92068006A8910084097
:1020D00028B92068006820F001002168086000BF6E
:1020E000204600F022F8002084F83D0000BF84F86C
:1020F0003C0000BF10BD10B504460CB9012010BD56
:1021000094F83D0028B9002084F83C00204600F0F7
:102110000DF8022084F83D00211D206800F052FCDB
:10212000012084F83D000020E9E770477047014630
:10213000022081F83D000868806800F00702062A46
:1021400005D00868006840F001000B6818600120A5
:1021500081F83D000020704701460868C06840F0E3
:1021600001000B68D8600868806800F00702062A42
:1021700005D00868006840F001000B681860002076
:10218000704710B504460CB9012010BDA06900B11C
:1021900000E000BF94F8390028B9002084F8380026
:1021A000204600F027F8242084F839002068C06811
:1021B00020F400502168C860204600F0C7FC206869
:1021C000006920F49040216808612068406920F08F
:1021D0002A00216848612068C06840F400502168E6
:1021E000C8600020E063202084F8390084F83A00B9
:1021F0000020CAE77047000010B53249096801F0B5
:10220000004149B12F49096841F000412D4A116050
:102210008169891C816110BD2A49083909682A4AE7
:1022200011622849091F097882F824102549C91E1E
:102230000978916223490C310968D1622149891ECC
:10224000098811861F49096851631E49091D0968DB
:1022500091631C4910310968D1631CA200210BE075
:10226000535C254C636000BF234B1B6803F04003A5
:10227000002BF9D04B1CD9B22929F1D300211F4AD8
:10228000116000BF1D4909680029FBD00E4A016892
:1022900011604168516081689160C168D1600169D5
:1022A00011614169516181699161C169D161002107
:1022B000124A116000BF114909680029FBD000BF14
:1022C000A9E700002CED00E0B08F00200D0A456E5C
:1022D00074657220486172644661756C745F486110
:1022E0006E646C65722C2053797374656D2048613F
:1022F0006C742E0D0A00000000100140A88500201B
:1023000000B587B000BF002001903348006840F05E
:102310000100314908600846006800F001000190A2
:1023200000BF00BF00BF002001900846006840F0D9
:10233000010008600846006800F00100019000BF3D
:1023400000BF00BF0020019023481430006840F017
:1023500010002149143108600846006800F01000A0
:10236000019000BF00BF4815029002200390012099
:102370000490032005900720069002A91748FFF754
:10238000FFF84FF4806002900720069002A91348DE
:10239000FFF7F6F8002204212520FFF79AFA2520FE
:1023A000FFF787FA0C2300224FF4E1310C4801F0CB
:1023B000F9F90B48006820F0400009490860084618
:1023C000006820F0200008600846C06840F0200047
:1023D000C86007B000BD0000303802400000024075
:1023E0000010014000BFEFF3108018B900BFEFF3F9
:1023F000118008B1012070470020FCE700BFEFF317
:10240000108018B900BFEFF3118008B101207047A8
:102410000020FCE700BFEFF3108018B900BFEFF316
:10242000118008B1012070470020FCE700BFEFF3E6
:10243000108018B900BFEFF3118008B10120704778
:102440000020FCE700BFEFF3058008B101207047D2
:102450000020FCE700BFEFF3058008B101207047C2
:102460000020FCE700BFEFF3058008B101207047B2
:102470000020FCE700BFEFF3058008B101207047A2
:102480000020FCE72DE9F0410446082C17DA00266D
:10249000FF27002508E0284600F030F810B1701C36
:1024A000C6B22F46681CC5B2082DF4DB012E04D13C
:1024B000A74202D10120BDE8F0810020FBE7082CF3
:1024C0000BD1002000F01AF828B1012000F016F816
:1024D00008B10120EFE70020EDE7092C0BD1012026
:1024E00000F00CF828B1022000F008F808B1012033
:1024F000E1E70020DFE70020DDE7000001460B48B0
:1025000050F831000069094B03EBC1039B88184068
:1025100008B9002200E00122044800EBC1008079E4
:10252000904201D1012070470020FCE710540008C0
:1025300010B502465318184610BD00BFFEE72DE93E
:10254000F041054605F12800FDF73BFF074667B15E
:10255000EC6A07E00121A01CFDF7C4FE064606B99F
:1025600002E0A468002CF5D100E000242046BDE87C
:10257000F0812DE9F04105460C46286BA0B12E6B89
:10258000002701E0374676681EB1F078E17888428E
:10259000F8DB6660A7600EB1B46000E0EC620FB1DA
:1025A0007C6006E02C6304E000206060A060EC62C8
:1025B0002C6305F12800FDF7D6FEBDE8F0814A68DE
:1025C0001AB1D1E901329A6001E08A68C2628A6870
:1025D0001AB1D1E901235A6001E04A6802637047E9
:1025E0007047000010B5002009490870022001F072
:1025F0001DFA002007490860642001F017FA054819
:1026000000680549086001200149087010BD0000FC
:102610006485002068850020708500204FF0E02050
:10262000006970470948007830B1002007490870F8
:102630004FF08060064908604FF0E020006940F0EC
:1026400001004FF0E021086170470000AC850020D8
:1026500004ED00E04FF0FF307047000010B5024677
:102660000B4612B94FF0FF3010BD0D480068B0FBAB
:10267000F2F0411EB1F1807F02D34FF0FF30F3E75B
:10268000FF240848C47206204FF0E0242061204651
:1026900041610020A061044C207000BFE4E700000D
:1026A000A485002018ED00E0AC85002000B587B0BF
:1026B00000BF002001900D48006840F002000B4967
:1026C00008600846006800F00200019000BF00BFEB
:1026D0000120039000200490032005900420029024
:1026E00002A90348FEF74CFF07B000BD3038024096
:1026F0000004024010B51B48006840B1194800684A
:10270000401E1849086010B90120174908700024BC
:1027100008E004EB4401154A02EB810001F072F875
:10272000601CC4B2042CF4DB11480068401C104942
:102730000860084600686FF00041884202D100201E
:102740000B49086001F01AF80A480078401CC0B232
:10275000084908700A2803DB0020087001F00AF815
:1027600010BD0000888500208C8500201487002083
:10277000908500209585002000B593B014210EA807
:10278000FEF794F8302102A8FEF790F800BF002071
:1027900001903048006840F080502E49086008469B
:1027A000006800F08050019000BF00BF00BF002013
:1027B00001902948006840F4804027490860084695
:1027C000006800F48040019000BF00BF012002902B
:1027D00000040390022008904105099108210A9104
:1027E0004FF4A8710B9102210C9104210D9102A8C4
:1027F000FFF722FA18B1802118A0FEF7C8F90F20C0
:102800000E9002200F90002010904FF4A0501190D5
:102810004FF48050129005210EA8FFF7ADF818B1C3
:1028200093210EA0FEF7B3F900BF002001900948E4
:10283000001D006840F480400649091D08600846F4
:10284000006800F48040019000BF00BFFEF792FED8
:1028500013B000BD40380240007000402E2E5C2EA8
:102860002E5C557365725C6273705C6273702E636C
:10287000000000001448006840F47000124908602D
:102880001248006840F001001049086000200F491C
:10289000083108600D4800680D4908400B49086080
:1028A0000C48091D0860081F006820F48020091FDB
:1028B0000860002005490C3108604FF000600249B3
:1028C000803908607047000088ED00E00038024061
:1028D000FFFFF6FE1030002410B5FEF763FFFFF790
:1028E0004BFF01210F20FEF70DFBFEF79FFB10BDF4
:1028F00070B5002500264FF08044206900F00205E5
:10290000E06800F002065DB156B14FF6FD7020613F
:10291000E0684FF6FD710840E0601E48006880479F
:10292000206900F00405E06800F004065DB156B1CE
:102930004FF6FB702061E0684FF6FB710840E060E5
:10294000154800688047206900F00805E06800F03D
:1029500008065DB156B14FF6F7702061E0684FF69A
:10296000F7710840E0600D4800688047206900F07A
:102970001005E06800F010065DB156B14FF6EF703B
:102980002061E0684FF6EF710840E060044800689D
:10299000804770BD788500207C85002080850020E0
:1029A0008485002010B50648006800F0010028B1B9
:1029B0006FF0010002490860FEF7E8FE10BD00005C
:1029C0001014004010B50268294B98420ED0B0F1A7
:1029D000804F0BD0274B984208D0274B984205D008
:1029E000264B984202D0264B984203D122F0700227
:1029F0004B681A431E4B984220D0B0F1804F1DD037
:102A00001C4B98421AD01C4B984217D01B4B984233
:102A100014D01B4B984211D01A4B98420ED01A4B2F
:102A200098420BD0194B984208D0194B984205D0C8
:102A3000184B984202D0184B984203D122F44072AE
:102A4000CB681A4322F080034C6943EA0402026017
:102A50008B68C3620B688362054B984202D0084BB7
:102A6000984201D10B6903630123436110BD00004B
:102A7000000001400004004000080040000C00403D
:102A80000004014000400140004401400048014072
:102A900000180040001C0040002000402DE9F041DB
:102AA00007460E46154605F0020080B905F0010004
:102AB00030B1314607F12800FDF779FD044615E0F5
:102AC000314607F12800FDF785FD04460EE0BC6A9B
:102AD00005F0010018B104EA0600B04205D105F086
:102AE000010018B904EA060000B900242046BDE838
:102AF000F081000030B5024600230D4C606C03E00D
:102B00000469091B0346C06810B104698C42F7D9F7
:102B100011619360D06020B104691569641B046180
:102B200082600BB1DA6001E0014C626430BD0000EC
:102B3000C0850020C16811B1D0E902129160024A3B
:102B4000C168516470470000C08500202DE9F04144
:102B500004462068006920F44050E1680843216879
:102B600008612169A068084361690843E16940EA96
:102B700001052068C06849F20C6188432843216838
:102B8000C8602068406920F44070A169084321684A
:102B90004861E069B0F5004F7ED1C44920688842A1
:102BA00003D0C349206888425DD1FEF7DDFF00EB0A
:102BB000C00101EB001061684900B0FBF1F0642135
:102BC000B0FBF1F00601FEF7CFFF00EBC00101EB17
:102BD000001061684900B0FBF1F7FEF7C5FF00EB9C
:102BE000C00101EB001061684900B0FBF1F0642105
:102BF000B0FBF1F000EBC00101EB0010A7EB80008F
:102C0000322101EBC0006421B0FBF1F000F0F800CC
:102C100006EB4006FEF7A8FF00EBC00101EB001039
:102C200061684900B0FBF1F7FEF79EFF00EBC001C1
:102C300001EB001061684900B0FBF1F06421B0FBCA
:102C4000F1F000EBC00101EB0010A7EB8000322196
:102C500001EBC0006421B0FBF1F000F0070030444C
:102C60002168886020E1FEF76FFF00EBC00101EBF7
:102C7000001061684900B0FBF1F06421B0FBF1F095
:102C80000601FEF761FF00EBC00101EB0010616877
:102C90004900B0FBF1F700E045E0FEF755FF00EB1F
:102CA000C00101EB001061684900B0FBF1F0642144
:102CB000B0FBF1F000EBC00101EB0010A7EB8000CE
:102CC000322101EBC0006421B0FBF1F000F0F8000C
:102CD00006EB4006FEF738FF00EBC00101EB0010E9
:102CE00061684900B0FBF1F7FEF72EFF00EBC00171
:102CF00001EB001061684900B0FBF1F06421B0FB0A
:102D0000F1F000EBC00101EB0010A7EB80003221D5
:102D100001EBC0006421B0FBF1F000F0070030448B
:102D200021688860C0E061492068884203D060491A
:102D3000206888425CD1FEF717FF00EBC00101EB71
:102D4000001061688900B0FBF1F6FEF70DFF00EBA3
:102D5000C00101EB001061688900B0FBF1F0642153
:102D6000B0FBF1F000EBC00101EB0010A6EB80001E
:102D7000322101EB00106421B0FBF1F000F0F0060D
:102D8000FEF7F2FE00EBC00101EB00106168890064
:102D9000B0FBF1F06421B0FBF1F006EB0016FEF79A
:102DA000E3FE00EBC00101EB001061688900B0FB9D
:102DB000F1F7FEF7D9FE00EBC00101EB00106168EE
:102DC0008900B0FBF1F06421B0FBF1F000EBC00131
:102DD00001EB0010A7EB8000322101EB0010642111
:102DE000B0FBF1F000F00F003044216888605BE038
:102DF000FEF7AAFE00EBC00101EB0010616889003C
:102E0000B0FBF1F6FEF7A0FE00EBC00101EB0010F5
:102E100061688900B0FBF1F06421B0FBF1F000EBD8
:102E2000C00101EB0010A6EB8000322101EB001085
:102E30006421B0FBF1F000F0F006FEF785FE00EB38
:102E4000C00101EB001061688900B0FBF1F0642162
:102E5000B0FBF1F006EB0016FEF776FE00EBC001CA
:102E600001EB001061688900B0FBF1F7FEF76CFE22
:102E700000EBC00101EB001061688900B0FBF1F0CC
:102E80006421B0FBF1F000EBC00101EB0010A7EBF7
:102E90008000322101EB00106421B0FBF1F000F062
:102EA0000F00304421688860BDE8F08100100140C7
:102EB0000014014010B5024800F004F810BD0000F5
:102EC000448700202DE9F041044620680568206809
:102ED000C6682068D0F8148005F02000D8B12068BA
:102EE0004068C7B2E18AA0684754E08A401C80B2BB
:102EF000E082E189884201DB0020E082608BE18989
:102F0000884202DA608B401C6083606A10B13846E8
:102F1000616A884700BF05F0800028B306F0800092
:102F200010B3A08A60B92068C06820F080002168D2
:102F3000C8602068C06840F040002168C86013E0A5
:102F4000012084F82800618A6068405C216848603C
:102F5000608A401C80B26082A189884201DB002027
:102F60006082A08A401EA08205F0400018B306F0DF
:102F7000400000B3A08A68B92068C06820F0400013
:102F80002168C860206A08B1206A8047002084F860
:102F9000280010E0618A6068405C21684860608AAF
:102FA000401C80B26082A189884201DB00206082DF
:102FB000A08A401EA082BDE8F08100000B480C49A9
:102FC00008600C4848600C4888604FF48060888135
:102FD000C881002008824882C8820883488388828A
:102FE000C8610862486281F82800704700100140FB
:102FF0004487002070870020708B002000BFFEE710
:103000000FB4054B10B503A9044A029800F034F838
:1030100010BC5DF814FB000065380008BC8500207A
:1030200002480068C0F30220704700000CED00E089
:1030300010B5002804DB0A07130E054A135406E0F6
:103040000A07140E034A00F00F031B1FD45410BDCF
:1030500000E400E018ED00E002E008C8121F08C11B
:10306000002AFAD170477047002001E001C1121F09
:10307000002AFBD1704700002DE9FF4F8BB09A4624
:103080000F460546002606E025280BD052460D992E
:1030900090476D1C761C28780028F5D10FB030467B
:1030A000BDE8F08F0024A0460122604900E00443FF
:1030B00015F8013F203B02FA03F00842F7D12878C7
:1030C0002E2817D115F8010F44F004042A280ED039
:1030D0006FF02F022878A0F1300109290AD808EBF7
:1030E000880102EB410100EB01086D1CF2E757F883
:1030F000048B6D1C287869283ED006DC0028CDD0D2
:1031000063280BD0642804D136E0732810D07528CA
:103110004BD052460D999047761C85E017F8040B6A
:103120008DF8000000208DF80100E946012003E041
:1031300057F8049B4FF0FF3061074FF0000401D4B3
:103140000AE0641C44450DDA8442FADB19F80410E5
:103150000029F6D106E0641C8442FCDB19F8041057
:103160000029F8D1264404E019F8010B52460D99C4
:103170009047641EF8D257E001CF4FF00A0B0028A9
:1031800002DA40422D2102E0210504D52B218DF8E1
:103190002410012103E0E10705D02021F7E70DF11C
:1031A000200908910CE00021F9E701CF4FF00A0B4C
:1031B000F9E75946FDF785FB01F1300209F8012DC9
:1031C0000028F6D1ADEB090000F1200B600701D417
:1031D0004FF00108D84502DDA8EB0B0000E000200D
:1031E0008046002406E009A85246005D0D999047EC
:1031F000641C761C08988442F5DB04E030205246BB
:103200000D999047761CB8F10001A8F10108F5DC92
:1032100005E019F8010B52460D999047761CBBF159
:103220000001ABF1010BF4DC6D1C34E7092801004F
:1032300070B50546304800EB05142846FFF722F923
:1032400000283ED02079052802DA0520207152E0BE
:1032500020790A2803DA2079401C20714BE0A07AFB
:1032600038B90120A07205EB4501491CC8B200F035
:1032700071FA208900283EDDE088218988420DDA34
:10328000E088401C80B2E0802189884233D105EB80
:103290004501C91CC8B200F05DFA2CE0E07A0028B4
:1032A00029DD207B401CC0B22073E17A884222DBFA
:1032B0000020207305EB4501491CC8B200F04AFA12
:1032C00019E02079052802DD0520207110E0207921
:1032D00018B12079401E20710AE0A07A012807D198
:1032E0000020A07205EB4501891CC8B200F032FA3B
:1032F0000020E080207370BD648600200B48807A37
:103300000A4AD27A904201D1002070470748807A59
:10331000064A115C1046807A401CC0B290720A289E
:1033200001DB002090720846EFE7000004870020D0
:1033300010B500F069F800F089F900F0ADF900F07F
:103340001FF910BDF0B591B0402101A8FDF7AEFA0C
:103350004FF0804500BF002000901F48006840F0FB
:1033600001001D4908600846006800F00100009057
:1033700000BF00BF1948006847081948B7FBF0F0C4
:10338000401E86B2B5F1804F02D01648854202D168
:103390004FF0FF3401E04FF6FF740195029604945C
:1033A00000210591039106918021079101A8FEF764
:1033B000A2FE20B140F225210BA0FDF7E8FB02227E
:1033C00000211C20FEF785FA1C20FEF772FA01A8E6
:1033D000FEF7ADFE11B0F0BD40380240A4850020DC
:1033E00040420F00000C00402E2E5C2E2E5C5573C8
:1033F00065725C6273705C7372635C6273705F743D
:10340000696D65722E63000010B500F07DF800F064
:1034100001F810BD10B586B000BF002000903848FC
:10342000006840F00400364908600846006800F073
:103430000400009000BF00BF00BF002000900846BD
:10344000006840F0200008600846006800F0200096
:10345000009000BF00BF00BF002000900846006839
:1034600040F0800008600846006800F0800000908E
:1034700000BF00BF00BF002000900846006840F079
:10348000400008600846006800F04000009000BF5F
:1034900000BF00BF002000900846006840F0800098
:1034A00008600846006800F08000009000BF00BF80
:1034B00000BF002000900846006840F4807008605B
:1034C0000846006800F48070009000BF00BF002034
:1034D000029003900320049000240CE0094800EBC4
:1034E000C40080880190074951F8340001A9FEF713
:1034F00047F8601CC4B2082CF0DB06B010BD000019
:10350000303802401054000810B500201A49887263
:10351000C8720873002418E06420184901EB0411F4
:1035200008810220154901EB04110871002013499C
:1035300001EB04118872114901EB0411C8720F49A3
:1035400001EB04110873601CC4B20A2CE4DB0622F0
:103550006421032000F014F906226421042000F005
:103560000FF906226421052000F00AF906226421E1
:10357000104600F005F910BD048700206486002085
:1035800000B587B000BF002001902C48006840F0D3
:1035900004002A4908600846006800F00400019011
:1035A00000BF00BF00BF002001900846006840F047
:1035B000200008600846006800F02000019000BF6D
:1035C00000BF00BF002001900846006840F48070F2
:1035D00008600846006800F48070019000BF00BFDA
:1035E000012000F06DF8022000F06AF8032000F0DE
:1035F00067F8042000F064F8012003900020049094
:10360000022005904002029002A90D48FDF7B8FF84
:103610008020029002A90B48FDF7B2FF4FF48070A2
:10362000029002A90748FDF7ABFF0420029002A90F
:103630000548FDF7A5FF07B000BD00003038024087
:1036400000200240001402400008024010B500248F
:1036500016E0002004EB44010D4A02EB81014860B2
:1036600004EB440102EB8101886004EB440102EBAE
:103670008101487004EB440102F82100601CC4B2CF
:10368000042CE6DB012003490870FFF75BFE10BD48
:10369000148700209485002010B5FFF78FFCFEF7FB
:1036A0002FFEFFF703F810BD10B5002404E02046FC
:1036B000FFF7BEFD601CC4B20A2CF8DB10BD000091
:1036C000411EC8B220B94FF480610A4A916110E0EE
:1036D000012803D18021084A11600AE0022803D1A1
:1036E000C101054A116004E0032802D10421034A04
:1036F0001160704700200240181402401808024070
:10370000012806D11049496981F480610E4A51614E
:1037100019E0022806D10D49096881F080010B4AA1
:10372000116010E0032806D10849096881F480710E
:10373000064A116007E0042805D10549096881F0AF
:103740000401034A11607047002002401414024033
:10375000140802400649C97A054A50541146C97AEC
:10376000491CC9B2D1720A2901DB0021D17270470C
:103770000487002010B5FFF797FF10BD70470000C9
:1037800010B5074B03EB00131981054B03EB001336
:10379000DA720023024C04EB0014237310BD000006
:1037A00064860020F0B591B004460D4617461E46CB
:1037B000402101A8FDF77AF80194029500210391B8
:1037C0000491059707910696089101A8FEF7D9FC88
:1037D00020B140F2BA2102A0FDF7D9F911B0F0BD35
:1037E0002E2E5C2E2E5C557365725C6273705C735A
:1037F00072635C6273705F756172745F6669666F35
:103800002E630000416851B14168491E416031B9E1
:10381000012141700178012901D18168416070471F
:1038200030B502464FF6FF7018E012F8015B80EAEF
:10383000052008230FE000F400443CB14FF6FF746C
:1038400004EA400041F22104604003E04FF6FF74B7
:1038500004EA40005B1E002BEDD1491E0029E4D193
:1038600030BD000070B505460C460548844203D1C2
:10387000284601F00DF870BD4FF0FF30FBE7000067
:10388000BC8500202DE9F05F05460F4690469A461C
:1038900000BF00BF2E4636B13078FA2803D117B1E9
:1038A000BAF1000F08D06FF003013046FDF7E6FCD7
:1038B0006FF00300BDE8F09F3046FEF740FE04467F
:1038C000CCB104F10C013846726AFCF7D6FFB8F1AE
:1038D000000F02D0E07888F80000E66000BF00BF6B
:1038E000A346584600F040FC39463046FDF764FDDB
:1038F0004FF0000905E039463046FDF727FD6FF02F
:1039000002094846D6E72DE9F05F06460F46914684
:103910009A4600BF00BF354635B12878FA2803D152
:1039200017B1BAF1000F08D06FF003012846FDF778
:10393000A5FC6FF00300BDE8F09F05F10C0000F05E
:103940008AFA0446D4B1394604F10C006A6AFCF7DD
:1039500094FFF92020700020A07084F80390676025
:10396000A56000BF00BFA346584600F0FDFB3946E6
:103970002846FDF7B7FC4FF0000805E03946284619
:10398000FDF7D8FC6FF002084046D4E770B50B484D
:10399000B0F854605630FCF7C5FD58B131460748C1
:1039A0005A30FCF79CFD05460448C06D50F8254090
:1039B00000BF00E00024204670BD0000C08500204C
:1039C0002DE9F04106460C48B0F85470394656309F
:1039D000FCF776FDB8420BDA394607485830FCF759
:1039E0007EFD04460448C06D40F82460012500E0D7
:1039F00000252846BDE8F081C0850020FEF76CFF59
:103A0000FEF74AFB00F064F8054A0021054800F083
:103A100019FF0549086000F077F800BFFEE70000D5
:103A20005C530008F50900086085002070B5054664
:103A30002846FDF731FBFEF705FD10B9FEF7D2FC75
:103A400030B16FF00500FDF73BFB6FF0050406E0B9
:103A500000BF2846DFF80CC000DF044600BF204648
:103A600070BD0000E148000870B505462846FDF726
:103A70003BFBFEF7E7FC10B9FEF7B4FC30B16FF08A
:103A80000500FDF71DFB6FF0050406E000BF2846AA
:103A9000DFF80CC000DF044600BF204670BD000008
:103AA0000D49000810B5FEF7D5FC10B9FEF7A6FCCD
:103AB00018B100F04FFF044605E000BFDFF80CC06E
:103AC00000DF044600BF204610BD00005549000835
:103AD00010B500F0D5F8FDF739FBFEF7BBFC10B9C7
:103AE000FEF78CFC30B16FF00500FDF71BFB6FF0AB
:103AF000050405E000BFDFF80CC000DF044600BF8E
:103B0000204610BD6949000810B5FDF733FBFEF7EC
:103B1000A1FC10B9FEF772FC30B16FF00500FDF7A3
:103B200001FB6FF0050405E000BFDFF80CC000DF0B
:103B3000044600BF204610BD8D4B00082DE9F04122
:103B400080460D4616461F463B46324629464046AD
:103B5000FDF79EFBFEF786FC10B9FEF75BFC38B163
:103B60003B46324629464046FFF78CFE044609E0B4
:103B700000BF3B46324629464046DFF810C000DF12
:103B8000044600BF2046BDE8F0810000654C0008F7
:103B90002DE9F04107460D4616463246294638467D
:103BA000FDF7B8FBFEF75EFC10B9FEF733FC30B151
:103BB0006FF005010020FDF761FB002408E000BF65
:103BC000324629463846DFF810C000DF044600BF01
:103BD0002046BDE8F08100009D4D00082DE9F04130
:103BE00080460D4616461F463B463246294640460D
:103BF000FDF7B8FBFEF736FC10B9FEF70BFC38B149
:103C00003B46324629464046FFF77DFE044609E022
:103C100000BF3B46324629464046DFF810C000DF71
:103C2000044600BF2046BDE8F0810000314F000887
:103C3000062809D2DFE800F008030405060704E0BF
:103C400003E002E001E000E000BF00BF00BFFEE7CC
:103C500000BF012080F3108800BF05480068401CA9
:103C600003490860002080F3108800BFF1E70000DE
:103C7000688500200148007A70470000C085002058
:103C800070472DE9F84F0446894690462CB1B9F1AA
:103C9000000F02D028F0030040B1002342464946FD
:103CA0002046FDF77BFA0020BDE8F88F09F10807F0
:103CB000F81D20F0070708212046FEF739FC0546CD
:103CC00000BF2868A0EB050A686820F00300AAEB93
:103CD000000ABA4500D30BE02D6828680028F0D10F
:103CE0000023424649462046FDF758FA0020DBE70C
:103CF00000BF00BF00BF201D61683944616000BF84
:103D000000BF2068A0F1080B59462046FEF710FCC2
:103D1000064600BF00BF61687068814203D900BFDA
:103D200000BF60687060686840B947EA0800686072
:103D300008212846FEF7FCFB009011E0686820F09F
:103D400003012846FEF7F4FB06462868306047EA80
:103D5000080070602E6008213046FEF7E9FB0090F5
:103D6000424649462046009BFDF718FA00989BE71B
:103D70002DE9F04105460F4605B13FB9002239460D
:103D80002846FDF747FA0020BDE8F08100213846BB
:103D9000FEF7CEFB8046A8F1080800260821284639
:103DA000FEF7C6FB044609E02646246834B9002223
:103DB00039462846FDF72EFA0020E5E74445F3D1C1
:103DC00000BF00BF281D6968626822F00302891ADB
:103DD000696016B90020606001E02068306001224F
:103DE00039462846FDF716FA0120CDE72DE9F041C6
:103DF00004460D463CB104F0070020B905F0070069
:103E000008B9182D07D2002229462046FDF712FADC
:103E10000020BDE8F08100BF00BF27463D601020B4
:103E2000786008212046FEF783FB0646A5F10801CD
:103E30002046FEF77DFB30600020316808601020CE
:103E40003168486000207060012229462046FDF755
:103E5000F1F90120DDE770B504462CB900210846D0
:103E6000FDF7ACF9002070BD04F11400FCF71FFA57
:103E7000054615B1201DFCF7D2F929462046FDF76D
:103E80009DF92846EFE770B504460D462CB1E06871
:103E9000A84202D82069A84208D86FF00302294638
:103EA0002046FDF797F96FF0030070BD294604F135
:103EB0001400FCF709FA201DFCF7D6F90022294668
:103EC0002046FDF787F90020EFE72DE9F04704468B
:103ED0000F4690461E4624B11FB1B8F1000F00D026
:103EE00016B90020BDE8F087276000206060C4F8A4
:103EF0000880E660666107FB086020613346424641
:103F000039462046FDF776F9354604E005EB080909
:103F1000C5F800904D46781E071EF7D12860012095
:103F2000E0E72DE9F05F0546A87800283CD0EC6872
:103F300029462046FEF743FB00202870294604F15D
:103F40000C00FFF7A0FFA06800286CD004F10C0063
:103F5000FFF781FF0646002E65D000BF00BFA346D5
:103F6000584600F0A7FA804600221146404600F06D
:103F700097FB404600F012FB0746D7F808904946E9
:103F800006F10C00626AFCF778FCF9203070002022
:103F9000B070387BF07031462046FEF7EAFA4946A9
:103FA0002046FDF7ABF93EE0AC68D5F80490A06878
:103FB00080B3A068407883282DD149462046FDF77C
:103FC0009DF900BF00BFA346584600F073FA804633
:103FD00000221146404600F063FB404600F0DEFA46
:103FE0000746D7F808A005F10C015046626AFCF7B5
:103FF00044FCF86810B1E878F9680870514620462A
:10400000FDF7DAF900202870294604F10C00FFF7CB
:104010003AFF08E0FFE749462046FDF76FF92946D9
:104020002046FEF7A6FABDE8F09F2DE9F0410646CE
:10403000344629E06769E07800F0080018B30020F2
:10404000207600212046FDF7D9F9A068D8B100BF3D
:1040500000BFA046404600F02DFA0546002211465A
:10406000284600F01DFBE56000202061E86A6061E1
:10407000E86A08B1E86A0461EC6201202076012157
:104080002046FDF7AFF93C46002CD3D1BDE8F081C6
:104090002DE9F0478046894698F8030000F00200B9
:1040A000E0B1D8F80C4094F92170E66A00BFB56819
:1040B0004D4500D1AD682DB195F92000B84201DD24
:1040C00095F920707669002EF1D194F92000B8425C
:1040D00004D084F82070204600F024FABDE8F08770
:1040E00070B500BFFFF752FC044604B934E02078F5
:1040F000F13809282ED2DFE800F0052D0D2D2D1501
:104100001D2D250000BF00BF25461648016E28461C
:10411000884720E000BF00BF25461248416E284670
:10412000884718E000BF00BF25460E48816E28462C
:10413000884710E000BF00BF25460A48C16E2846E8
:10414000884708E000BF00BF25460648016F2846A3
:10415000884700E000BFC5E700BF002000F03CF941
:1041600070BD0000C085002010B504462046FFF752
:1041700027FC68B10948407A30B900BF4FF0805041
:104180000749086000BF07E001210448817203E08D
:1041900021460220FFF74CFD10BD0000C085002025
:1041A00004ED00E02DE9F04104460120607094F92F
:1041B00020700B4800BF0646B56801E02E46AD688A
:1041C0001DB195F92000B842F8DCE660A560B46046
:1041D00005B1EC602046FDF799F9BDE8F0810000DB
:1041E000DC85002010B502460B465C1C8CB9002112
:1041F000154C206B01E0014600690028FBD1D3611A
:1042000051610024146109B10A611BE00E4C226364
:1042100018E000210C4CE06A03E0C4691B1B014656
:10422000006910B1C4699C42F7D9D3615161106132
:1042300009B10A6101E0044CE26218B1C469E41AF0
:10424000C461426110BD0000C0850020C169491CE5
:1042500081B9016911B1D0E904215161416929B1E4
:10426000D0E9041211610021416119E00D49026990
:104270000A6315E0016941B10169C969C269114464
:104280000269D161D0E904215161416929B1D0E9C4
:10429000041211610021416102E002490269CA620F
:1042A00070470000C085002070B54A48C56A05B94E
:1042B00070BDE869401EE861E86900287ED100BF52
:1042C0006878632836D008DC13280DD033280FD047
:1042D000432811D053285DD11AE0732836D08328A3
:1042E00040D0932856D149E02846FCF7DFFE52E043
:1042F0002846FDF7E7F84EE0284600F00BF90646A1
:1043000000BF3446204600BF0646FCF701FF42E0EE
:10431000284600F0FFF8064600BF3446204600BF9E
:1043200006462946FFF7B4FE204600BF0646FDF7C5
:104330004FF830E0284600F0EDF8064600BF34465E
:10434000204600BF0646FDF765F824E0284600F049
:10435000E1F8064600BF3446204600BF0646FCF79B
:1043600077FF18E0284600F0D5F8064600BF34462F
:10437000204600BF0646FCF7ABFF0CE0284600F0E5
:10438000C9F8064600BF3446204600BF0646FDF782
:1043900009F800E000BF00BF284600F0FFF80668FB
:1043A00031462846FDF7C6F8284600F0A6F828460C
:1043B00000F0E8F82D692DB1E86900E007E0002879
:1043C0003FF47EAF0DB1002068610248C56200BFB6
:1043D0006EE70000C08500202DE9F0410546FFF79B
:1043E00049FC074600F060F80646A5B91448446A3F
:1043F000022F22D10CB394F9200096F920108842A4
:104400001BDD204600F079F83046FFF7CBFE204652
:1044100000F012F911E0022F0CD195F9200096F965
:104420002010884206DD3046FFF7BCFE284600F02B
:1044300003F902E0284600F0A5F8BDE8F08100008D
:10444000C085002010B50446002060702070A07860
:1044500000F0020078B1A07800F0100030B1114AED
:10446000216BD2F88400FFF70EFD04E00D4A216BAA
:10447000506FFFF77DFCA07800F0010080B1094883
:10448000D0F8880030B10749D1F888002146FFF7FD
:10449000FAFC05E00349D1F880002146FFF768FCEB
:1044A00010BD0000C0850020014840697047000031
:1044B000C08500200146886882688A6082681AB1D7
:1044C00000BF00BF8268D1600022C260704730B573
:1044D000024691F9204000BF00BF1346986801E0F2
:1044E0000346806818B190F92050A542F8DACB60F5
:1044F0008860996000B1C16030BDC16849B1D0E940
:1045000002129160816811B1D0E90221D1600021CD
:10451000C16070470146084600E0C0680278F12A91
:10452000FBD0704770B50646344600E0E46814B12D
:104530002078F128FAD000BF00BF254635B13046BB
:10454000FFF7DBFF31462846FFF7C1FF70BD70B5AE
:1045500004466078332813D194F823202046616AFA
:10456000FEF79CFA05465DB100222946204600F080
:1045700097F894F8231023462A46606AFCF792FFC6
:1045800070BD000010B5044601206070214602484D
:10459000FFF79DFF10BD0000DC850020014691F86B
:1045A000222002F010030BB9602300E020238A6B65
:1045B000981870470149486170470000C085002085
:1045C00010B5FFF771FF044664B1216BA06B884200
:1045D00004D9206B00680449884203D02146012099
:1045E000FFF726FB10BD0000A52E5AE270B501258D
:1045F0000D480021826D0D4800F074FD044600BF97
:104600000B4884620848406E60B107480021C26DC3
:10461000084800F067FD044600BF05488464806CCC
:1046200000B90025284670BD54550008513C0008CB
:10463000C08500207947000810B50446022060704C
:1046400003488461FFF7BCFF2046FCF769FF10BDFB
:10465000C085002070B504460E46FFF70BFB02280C
:1046600001D0002070BD0D48406A08B90020F9E76C
:10467000FFF71AFF054631462846FCF7D5FE6C7059
:1046800031462846FFF7AEFD04481C30FFF712FF05
:1046900005462846FFF7D0FF0120E3E7C08500204C
:1046A0002DE9F04106460C46154621463046FCF7FA
:1046B00041FF3046FFF772FF07463C603046FFF788
:1046C000C5FD1DB13046FFF787FE02E03046FFF71B
:1046D00059FFBDE8F081000010B5FDF79FFF2548A8
:1046E000C068401C2349C8600846006D08B1086DC9
:1046F0008047FFF7D9FD0020FFF76EFE1D48006CD4
:10470000002835D01B48816B8069814205D019484B
:1047100081698163016CC1632AE01648C06B18B1DE
:104720001448C16B491EC1631248C06B00BB00BF77
:104730001048007A02281BD10E48446AC4B194F98B
:104740002010806B90F92000814211D12046FFF7A4
:10475000D4FE0849886BFFF715FF0649886BFCF704
:10476000D5FE2046FFF768FF02488463016CC163F1
:1047700010BD0000C08500201CB510490A6E486EAF
:104780000821FFF705FA054600BF0D48C5640D492D
:10479000016500BF0A494FF0FF330022C86C69462B
:1047A000FFF7CCF90446002CF4D1DDE90001FCF759
:1047B000CDFEDDE900108847ECE700005455000805
:1047C000C0850020C947000870B51548446C04B97D
:1047D00070BD2069401E20611CE02046FEF7AAF94A
:1047E0000F4900231A46C86C04F11801FFF7F6F9C7
:1047F00005461DB121460320FFF71AFAE07801288B
:1048000004D120466169FEF775F901E0012060706E
:104810000348446C14B120690028DED000BFD7E7FC
:10482000C0850020FCF734FE00BFDFF814C000DFB5
:1048300000BF4FF0FF310020FCF720FE00BFFEE775
:10484000595000082DE9F04107460D4616463246FC
:1048500029463846FCF74AFEFDF70CFE10B9FDF775
:10486000E5FD30B16FF005010020FCF707FE0024E4
:1048700008E000BF324629463846DFF810C000DFA6
:10488000044600BF2046BDE8F0810000E550000866
:1048900010B504460F480068082802D34FF0FF30D7
:1048A00010BD0C4802680068401C0A4B18600A489A
:1048B000845418460068082801D00A2C08D10548FD
:1048C000054902680548FCF7F7F90020014908602E
:1048D0002046E5E7B0850020B485002000FE0200F8
:1048E00070B5044674B121461320FFF7B3FE18B12A
:1048F0002046FCF7EFFB05E000BF03484069054692
:10490000FCF7D4FB002070BDC085002070B50446C4
:104910000F48C068241A14B1B4F1004F06D36FF0E9
:104920000300FCF7CDFB6FF0030070BD21461320A0
:10493000FFF790FE18B12046FCF7E0FB05E000BF52
:10494000034840690546FCF7B1FB0020EDE7000095
:10495000C085002010B50349C868FCF7EDFB01488D
:10496000C06810BDC085002010B58648007A0128B7
:1049700003D1FCF7F5FB002010BD8248007A30B16E
:104980004FF0FF30FCF7CEFB4FF0FF30F4E79C21F7
:104990007C480830FBF78AFF7B48C1687948C165CD
:1049A0007948008A7749A1F85400774881687548AA
:1049B0000164754A116BD06AFFF718FA20B172488A
:1049C000C16A7048C0F880106F4A91695069FFF75A
:1049D0000DFA20B16C4840696A49486704E06948AB
:1049E000D0F8800067494867674A116AD069FFF7C5
:1049F000FDF920B16448C1696248816703E06148FC
:104A0000D0F880108167604A916A506AFFF7EEF92A
:104A100020B15D48416A5B48C16703E05948D0F85E
:104A20008010C1675848406B88B1574C646BE3688D
:104A3000554C646BA268544C646B2168524C606B9B
:104A4000FFF743FA2046406B4E49C1F884004E48B8
:104A5000806B88B14C4CA46BE3684B4CA46BA26890
:104A6000494CA46B2168484CA06BFFF72EFA2046F6
:104A7000816B4448C0F888104348C06B88B1424CF1
:104A8000E46BE368404CE46BA2683F4CE46B216844
:104A90003D4CE06BFFF719FA2046C16B3948C0F86E
:104AA0008C103948006C88B1374C246CE368364C64
:104AB000246CA268344C246C2168334C206CFFF7C2
:104AC00004FA2046016C2F48C0F890102E48406C24
:104AD00088B12D4C646CE3682B4C646CA2682A4C42
:104AE000646C2168284C606CFFF7EFF92046416C3C
:104AF0002448C0F894102448806C88B1224CA46CDF
:104B0000E368214CA46CA2681F4CA46C21681E4C65
:104B1000A06CFFF7DAF92046816C1A48C0F89810AB
:104B20001948C06C88B1184CE46CE368164CE46C0E
:104B3000A268154CE46C2168134CE06CFFF7C5F9D2
:104B40002046C16C0F48C0F89C100F48006D88B11A
:104B50000D4C246DE3680C4C246DA2680A4C246D46
:104B60002168094C206DFFF7B0F92046016D05481A
:104B7000C0F8A010012003490872FCF7F1FA0020E8
:104B8000FAE60000C08500205455000810B53148F1
:104B9000007A012806D06FF00600FCF7C3FA4FF048
:104BA000FF3010BDFFF722FD30B94FF0FF30FCF7AA
:104BB000B9FA4FF0FF30F4E700BFFF23264A9372A3
:104BC000927A62F0FF02D243B2FA82F2C2F120017D
:104BD00000BF214A0C3A1268C2F3022210468842F2
:104BE00000D3411CFE228A40D3B21B4A183AD37725
:104BF00000BF1A4948681A49FDF730FD30B14FF03F
:104C0000FF30FCF78FFA4FF0FF30CAE7FDF722FDC7
:104C100010490861FDF706FD0E481C30FFF74AFCFD
:104C200004462046FFF708FD0C48007800F001001C
:104C300020B1022080F3148800BF04E0032080F339
:104C4000148800BF00BF022002490872FCF79CFADA
:104C50000020A6E7C085002018ED00E054550008AC
:104C6000FD0700082DE9FF5F0746884691469A46F2
:104C700000BF00BF3C462CB12078FA2802D1B8F121
:104C8000000F09D16FF003012046FCF7F7FA6FF02F
:104C9000030004B0BDE8F09F2046FDF750FC054638
:104CA000002D4BD029462046FDF789FC05F10C016B
:104CB0004046626AFBF7E1FDB9F1000F02D0E878E7
:104CC00089F8000041462046FCF776FB002028705A
:104CD000294604F10C00FFF7D6F8A06858B304F198
:104CE0000C00FFF7B8F805462DB300BF00BF204603
:104CF0000194FFF7DFFB0390012200210398FFF7E7
:104D0000CFFC0398FFF74AFC0646B0680290626A3F
:104D100005F10C000299FBF7B0FDF9202870002086
:104D2000A870307BE87029462046FDF722FC20461B
:104D30000299FCF7E3FA4FF0000B2BE0BAF1000FF9
:104D400022D0524641462046FCF7B2FA5146832013
:104D5000FFF780FC90B100BF0F484069019000BF91
:104D6000009420460199FFF7B2FB00BFEFF30980E2
:104D70000646C6F80880C6F80C9002E02046FCF70C
:104D8000A7FA6FF0010B05E041462046FCF7DEFA7A
:104D90006FF0020B58467CE7C08500202DE9FC5FD0
:104DA00007468946154617B1B9F1000F07D16FF0D4
:104DB00003010020FCF762FA0020BDE8FC9F09F126
:104DC000030020F0030000F10C0AB7FA87F0BAFAEA
:104DD0008AF10844202806D26FF003010020FCF776
:104DE0004DFA0020E9E707FB0AF00090A5B3D5F8DB
:104DF00000B0AC682E696869019064B104F00300EA
:104E000010B9E86834280FD26FF008010020FCF7D1
:104E100035FA0020D1E7E86830B16FF008010020D2
:104E2000FCF72CFA0020C8E76EB106F0030018B9B1
:104E3000DDE90010884214D26FF009010020FCF770
:104E40001DFA0020B9E7019858B16FF00901002060
:104E5000FCF714FA0020B0E7FFE74FF0000B002446
:104E60000026ACB93048D0F8A00030B12E49D1F8B6
:104E7000A000FEF7F0FF044607E02B490122D1F81D
:104E800080003421FEF7FDFE04464FF0010801E0EA
:104E90004FF0000824B31EBB23490022C86F0099BD
:104EA000FEF7EFFE0646AEB908F0010080B11E48DD
:104EB000D0F8A00030B11C49D1F8A0002146FEF77F
:104EC000E2FF05E01849D1F880002146FEF750FFC7
:104ED000002403E030460099FBF7E8FC48F00208A4
:104EE000DCB1FA20207084F80280C4F804B00020FD
:104EF000A060C4F82490A062E0622063334652466A
:104F0000394604F10C00FEF7E0FF08490648016746
:104F100020466168FCF7A6F904E06FF00401002068
:104F2000FCF7ACF9204648E7C0850020233F000885
:104F30002DE9FF5F07468B4691469A4600BF00BFAA
:104F40003C462CB12078FA2802D1BBF1000F09D1E0
:104F50006FF003012046FCF791F96FF0030004B0F5
:104F6000BDE8F09FA06850B3A0684078832826D1A0
:104F700059462046FCF7C2F900BF00BF2046019405
:104F8000FFF798FA0390012200210398FFF788FBAE
:104F90000398FFF703FB0646B06802905946626A21
:104FA0000298FBF76AFCF06810B1F06880F8009096
:104FB00020460299FCF700FA4FF0000848E004F19F
:104FC0000C00FEF748FF0546B5B1594605F10C0047
:104FD000626AFBF752FCF92028700020A87085F85F
:104FE000039029462046FDF7C4FA59462046FCF7AF
:104FF00085F94FF000082BE0BAF1000F22D052469D
:1050000059462046FCF7BEF951469320FFF722FB94
:1050100090B100BF0F484069019000BF0094204646
:105020000199FFF754FA00BFEFF309800646C6F86E
:1050300008B0C6F80C9002E02046FCF7B3F96FF018
:10504000010805E059462046FCF774F96FF00208A4
:10505000404684E7C085002070B5FEF70BFE0228AD
:1050600002D11F48406A00B970BDFFF71DFA04461F
:10507000E06AFEF7DAFFA06938B100221146A069A4
:10508000FFF70EFBA069FCF727FA00BFEFF30980DA
:10509000A06313481C30FFF70DFA0546FFF7CCFA62
:1050A0000020FFF787FAE07800F0010018B92046E9
:1050B000FFF7C8F90EE0042060700020E0600848A7
:1050C000406BA0600648406B10B10548406BC4605F
:1050D000034844632046FCF7C7F900BFC4E700005B
:1050E000C08500202DE9F74F82B09046029840B964
:1050F0006FF003010020FCF7C1F9002005B0BDE806
:10510000F08FB8F1000F45D0D8F800000090D8F823
:1051100004000190D8F80840D8F81050D8F814606E
:10512000D8F818906CB104F0030018B9D8F80C0046
:10513000442810D26FF008010020FCF79FF90020EE
:10514000DCE7D8F80C0030B16FF008010020FCF764
:1051500095F90020D2E755B105F0070000B936B93E
:105160006FF00A010020FCF789F90020C6E7B9F1C9
:10517000000F02D14FF0180914E0B9F1010F02DB62
:10518000B9F1380F0EDD6FF00B010020FCF776F956
:105190000020B3E7002000900190002400250026A5
:1051A0004FF018095EB106F0070008B9482E06D284
:1051B0006FF00A010020FCF761F900209EE7ACB90E
:1051C0006148D0F8880030B15F49D1F88800FEF717
:1051D00042FE044607E05C490122D1F880004421E8
:1051E000FEF74FFD04464FF0010A01E04FF0000AC0
:1051F0007CB375BBBEB95548466D5348D0F88400A2
:1052000048B15149D1F88400FEF725FE05468DB11D
:105210004AF0100A0EE04C490022486F3146FEF772
:1052200030FD054606E048490022486F3146FEF74A
:1052300028FD0546ADB90AF0010088B14248D0F812
:10524000880038B14049D1F888002146FEF71BFE9E
:1052500006E008E03C49D1F880002146FEF788FDD1
:1052600000244AF0020A002C63D0F12020700120B3
:10527000607084F802A00198E070009860600020DF
:10528000A060E06020616061A061E0614FFA89F098
:1052900084F820004FFA89F084F82100FD2084F87A
:1052A0002200002084F823006062A062E06225638F
:1052B0006663A8194038A0630298E0632F4624482B
:1052C0003D4638602148007800F0040060B11120AC
:1052D000C0EB960B05E03F1D4FF0CC303860ABF1D2
:1052E000010BBBF1000FF6D1A76B4FF0000B04E0F0
:1052F000002047F82B000BF1010BBBF10D0FF7D18C
:10530000144878630298B863104A127802F00100DA
:10531000029A02F001014FF08072FA63039838623A
:105320000D480949086620466268E16BFCF788F879
:1053300004E06FF004010020FCF7A0F814B120464F
:10534000FFF74AF82046D9E6C085002054550008EA
:10535000A52E5AE2254800084F450008345500089C
:10536000000000000000000000000000000000003D
:10537000000800001C000000000000000000000009
:1053800008550008000000000000000000000000B8
:1053900000000000000400001800000000000000F1
:1053A0000000000020550008000000000000000080
:1053B0000000000000000000000800001A000000CB
:1053C0000000000000000000F85400080000000089
:1053D00000000000000000000000000000020000CB
:1053E000190000000000000000000000E454000864
:1053F00000000000000000000000000000000000AD
:105400000004000018000000000000000000000080
:1054100000200240000100000008024000200000BF
:105420000020024000080000001C024004000000B0
:10543000001C0240080000000014024000080000A8
:105440000018024080000000001C024000800000A4
:105450000000000000000000010203040607080924
:105460000000000001020304000000000000000032
:10547000C480002044000000508100200002000091
:10548000010000000000000000000000000000001B
:10549000000000000881002044000000508300202C
:1054A00000020000280000000000000000000000D2
:1054B00000000000000000004080002034000000D8
:1054C0007480002050000000000000000100010175
:1054D00040000000009000200094002080940020F4
:1054E000000000006F7352747854687265616455EF
:1054F00073657249460000006F735274784C4544DE
:1055000054687265616400006F73527478537461FB
:1055100074697374696354687265616400000000A3
:105520006F735274784D736750726F54687265610F
:10553000640000006F73527478537461727454681D
:1055400072656164000000005254582056352E35B3
:105550002E32000003000000E803000005000000F8
:10556000008000201000000000000000000000008B
:10557000000000000000000000000000000000002B
:10558000000000200080000000000000000000007B
:10559000000000000000000000000000000000000B
:1055A0000000000000000000000C0000685400082B
:1055B0008C540008B054000804000000C48000208F
:1055C0004C810020000000000000000000000000EE
:1055D00000000000000000000000000000000000CB
:1055E00000000000000000000000000040800020DB
:1055F000748000202456000800000020648600000B
:105600005009000844570008000000102C0000005A
:1056100058300008445700086486002044120000F7
:105620006830000801FF01FF01FF01FF01FF01FFDA
:1056300001FF01FF01FF01FF01FF01FF01FF01FF6A
:1056400001FF01FF01FF01FF01FF01FF01FF01FF5A
:1056500001FF01FF01FF01FF01FF01FF01FF01FF4A
:1056600001FF01FF01FF01FF01FF01FF01FF01FF3A
:1056700001FF01FF01FF01FF01FF01FF01FF01FF2A
:1056800001FF01FF01FF01FF01FF01FF01FF01FF1A
:1056900001FF01FF01FF01FF01FF01FF01FF01FF0A
:1056A00001FF01FF01FF01FF01FF01FF01FF01FFFA
:1056B00001FF01FF01FF01FF01FF01FF01FF01FFEA
:1056C00001FF01FF01FF01FF01FF01FF01FF01FFDA
:1056D00001FF01FF01FF01FF01FF01FF01FF01FFCA
:1056E00001FF01FF01FF01FF01FF01FF01FF01FFBA
:1056F00001FF01FF01FF01FF01FF01FF01FF01FFAA
:1057000001FF01FF01FF01FF01FF01FF01FF01FF99
:1057100001FF01FF01FF01FF01FF01FF01FF01FF89
:1057200001FF01FF01FF01FF01FF01FF01FF01FF79
:1057300001A942105201031A24F4099D485500089A
:10574000D2B3FB02000000000000000000000000D7
:105750000000000000000000000000000000000049
:105760000000000000000000000000000000000039
:040000050800018965
:00000001FF
