:020000040800F2
:10000000689D00203107000841270008110E0008F4
:100010009B260008E50F00089D3300080000000043
:10002000000000000000000000000000550700086C
:10003000E90F000800000000ED070008FD070008B8
:100040004B0700084B0700084B0700084B07000848
:100050004B0700084B0700084B0700084B07000838
:100060004B0700084B0700084B0700084B07000828
:100070004B0700084B0700084B0700084B07000818
:100080004B0700084B0700084B0700084B07000808
:100090004B0700084B0700084B0700084B070008F8
:1000A0004B0700084B0700084B0700084B070008E8
:1000B000912C00084B0700084B0700084B0700086D
:1000C0004B0700084B0700084B0700084B070008C8
:1000D0004B070008553200084B0700084B07000883
:1000E0004B0700084B0700084B0700084B070008A8
:1000F0004B0700084B0700084B0700084B07000898
:100100004B0700084B0700084B0700084B07000887
:100110004B0700084B0700084B070008452D000857
:100120004B0700084B0700084B0700084B07000867
:100130004B0700084B0700084B0700084B07000857
:100140004B0700084B0700084B0700084B07000847
:100150004B0700084B0700084B0700084B07000837
:100160004B0700084B0700084B0700084B07000827
:100170004B0700084B0700084B0700080000000071
:100180004B0700084B070008DFF80CD000F0A2FD79
:1001900000480047A1450008689D00200246D2E8BB
:1001A0004F0FC2E8431F03B1F9E77047024652E818
:1001B000000F40EA010042E8000303B1F7E770478F
:1001C00010B5024652E8000F20EA010442E800435D
:1001D00003B1F7E710BD10B5024652E8000F00EA80
:1001E00001048C4203D0BFF32F8F002010BD20EA02
:1001F000010442E8004303B1EFE710BD10B5024629
:1002000052E8000F084203D1BFF32F8F002010BD2A
:1002100020EA010442E8004303B1F1E710BD0246C1
:1002200052E8000F411C42E8001303B1F8E77047A1
:1002300010B50246D2E85F0F814202D8BFF32F8F7C
:1002400010BD441CC2E8534F03B1F3E710BD10B515
:100250000246D2E85F0F441CA14200D80024C2E845
:10026000534F03B1F5E710BD024652E8000F411E9F
:1002700042E8001303B1F8E77047024652E8000F66
:1002800010B9BFF32F8F7047411E42E8001303B12E
:10029000F4E770470246D2E85F0F10B9BFF32F8F23
:1002A0007047411EC2E8531F03B1F4E7704702468E
:1002B00052E8000F10B9BFF32F8F7047016842E872
:1002C000001303B1F4E7704702680A60BFF35F8F61
:1002D00050E8002F0B689342F6D140E8001303B1B9
:1002E000F2E770470246D2E84F0FC2E8431F03B15E
:1002F000F9E77047024652E8000F40EA010042E881
:10030000000303B1F7E7704710B5024652E8000F4B
:1003100020EA010442E8004303B1F7E710BD10B53D
:10032000024652E8000F00EA01048C4203D0BFF3FA
:100330002F8F002010BD20EA010442E8004303B1E2
:10034000EFE710BD10B5024652E8000F084203D196
:10035000BFF32F8F002010BD20EA010442E80043C4
:1003600003B1F1E710BD024652E8000F411C42E81C
:10037000001303B1F8E7704710B50246D2E85F0FEB
:10038000814202D8BFF32F8F10BD441CC2E8534FE7
:1003900003B1F3E710BD10B50246D2E85F0F441C6D
:1003A000A14200D80024C2E8534F03B1F5E710BDC5
:1003B000024652E8000F411E42E8001303B1F8E77D
:1003C0007047024652E8000F10B9BFF32F8F7047F5
:1003D000411E42E8001303B1F4E770470246D2E839
:1003E0005F0F10B9BFF32F8F7047411EC2E8531F34
:1003F00003B1F4E77047024652E8000F10B9BFF3AB
:100400002F8F7047016842E8001303B1F4E770478B
:1004100002680A60BFF35F8F50E8002F0B689342B9
:10042000F6D140E8001303B1F2E770470246D2E884
:100430004F0FC2E8431F03B1F9E77047024652E885
:10044000000F40EA010042E8000303B1F7E77047FC
:1004500010B5024652E8000F20EA010442E80043CA
:1004600003B1F7E710BD10B5024652E8000F00EAED
:1004700001048C4203D0BFF32F8F002010BD20EA6F
:10048000010442E8004303B1EFE710BD10B5024696
:1004900052E8000F084203D1BFF32F8F002010BD98
:1004A00020EA010442E8004303B1F1E710BD02462F
:1004B00052E8000F411C42E8001303B1F8E770470F
:1004C00010B50246D2E85F0F814202D8BFF32F8FEA
:1004D00010BD441CC2E8534F03B1F3E710BD10B583
:1004E0000246D2E85F0F441CA14200D80024C2E8B3
:1004F000534F03B1F5E710BD024652E8000F411E0D
:1005000042E8001303B1F8E77047024652E8000FD3
:1005100010B9BFF32F8F7047411E42E8001303B19B
:10052000F4E770470246D2E85F0F10B9BFF32F8F90
:100530007047411EC2E8531F03B1F4E770470246FB
:1005400052E8000F10B9BFF32F8F7047016842E8DF
:10055000001303B1F4E7704702680A60BFF35F8FCE
:1005600050E8002F0B689342F6D140E8001303B126
:10057000F2E770470246D2E84F0FC2E8431F03B1CB
:10058000F9E77047024652E8000F40EA010042E8EE
:10059000000303B1F7E7704710B5024652E8000FB9
:1005A00020EA010442E8004303B1F7E710BD10B5AB
:1005B000024652E8000F00EA01048C4203D0BFF368
:1005C0002F8F002010BD20EA010442E8004303B150
:1005D000EFE710BD10B5024652E8000F084203D104
:1005E000BFF32F8F002010BD20EA010442E8004332
:1005F00003B1F1E710BD024652E8000F411C42E88A
:10060000001303B1F8E7704710B50246D2E85F0F58
:10061000814202D8BFF32F8F10BD441CC2E8534F54
:1006200003B1F3E710BD10B50246D2E85F0F441CDA
:10063000A14200D80024C2E8534F03B1F5E710BD32
:10064000024652E8000F411E42E8001303B1F8E7EA
:100650007047024652E8000F10B9BFF32F8F704762
:10066000411E42E8001303B1F4E770470246D2E8A6
:100670005F0F10B9BFF32F8F7047411EC2E8531FA1
:1006800003B1F4E77047024652E8000F10B9BFF318
:100690002F8F7047016842E8001303B1F4E77047F9
:1006A00002680A60BFF35F8F50E8002F0B68934227
:1006B000F6D140E8001303B1F2E770470246D2E8F2
:1006C0004F0F411CC2E8431F03B1F8E770470246D1
:1006D00052E8000F411C42E8001303B1F8E77047ED
:1006E000024652E8000F42E8001303B1F9E77047F1
:1006F000024652E8000F830103D3BFF32F8F00207F
:10070000704700F00040084342E8000303B1F0E7FF
:100710007047024652E8000F800103D2BFF32F8FCB
:100720000020704742E8001303B1F3E7012070474F
:100730000648804706480047FEE7FEE7FEE7FEE77B
:10074000FEE7FEE7FEE7FEE7FEE7FEE7F12B000827
:10075000890100081EF0040F0CBFEFF30880EFF3CF
:100760000980816911F8021C91BB01B590E80F1056
:10077000E047BDE800508CE80300244B93E80600F6
:10078000914208BF704741B91EF0100F10D12049A7
:10079000086820F0010008600AE02CE9F00F1EF064
:1007A000100F08BF2CED108AC1F838C081F822E084
:1007B0001A6092F82210906B61F0FF0E1EF0100F7D
:1007C00008BFB0EC108AB0E8F00F80F309887047DA
:1007D000104A13689942FAD801B552F821C00FC8DF
:1007E000E047BDE80050CCF80000704701B504F0C8
:1007F00049FABDE80140EFF3098CBEE701B504F00A
:100800003DFDBDE80140EFF3098CB6E7C885002047
:1008100034EF00E02C6000082DE9F05F0546002071
:1008200092469B4688460646814640241BE0284661
:1008300041464746224600F085F853465A46C01ABC
:10084000914110D311461846224600F06CF82D1A3B
:1008500067EB01084F4622460120002100F063F8B3
:1008600017EB00094E41201EA4F10104DFDC4846CD
:1008700031462A464346BDE8F09F40EA01039B0704
:1008800003D009E008C9121F08C0042AFAD203E005
:1008900011F8013B00F8013B521EF9D27047D2B269
:1008A00001E000F8012B491EFBD270470022F6E759
:1008B00010B513460A4604461946FFF7F0FF2046D6
:1008C00010BD034611F8012B00F8012B002AF9D1C5
:1008D0001846704700F0004230F000400AD0C10DC9
:1008E00001F56071C0F3160042EA0151C2084007E9
:1008F0001143704700200146704730B50B46014652
:1009000000202022012409E021FA02F59D4205D3AE
:1009100003FA02F5491B04FA02F52844151EA2F158
:100920000102F1DC30BD202A04DB203A00FA02F19A
:10093000002070479140C2F1200320FA03F31943CD
:1009400090407047202A04DB203A21FA02F000216F
:10095000704721FA02F3D040C2F1200291400843CF
:10096000194670472DE9FE4F804681EA0300C00F0B
:100970000C46009021F0004123F00045B8EB020046
:10098000A94105D24046214690461C460B460246E8
:1009900023F00040104347D0270DC7F30A00C3F3EC
:1009A0000A510290401A019040286BDAC3F31300F9
:1009B00040F4801B0098924620B10023D2EB030A3A
:1009C00063EB0B0B01985946C0F140025046FFF70C
:1009D000AAFF06460D4650465946019A00F08CF98A
:1009E00010EB08006141002487EA115284EAE773A2
:1009F0001A4340D0009A62B3019A012A4FEA075283
:100A000015DC001B61EB02014FF0004202EA0752C5
:100A1000CDE90042001C41F5801132462B4600F022
:100A20008CF903B0BDE8F08F40462146F9E7001B82
:100A300061EB0201001C41F5801300185B41201896
:100A4000A2F5001747EB030140EAD570B6196D41D6
:100A500011E06D084FEA360645EAC0754FEA0752C5
:100A6000001B61EB0201001C41F5801149084FEAAF
:100A700030000019514132462B4603B0BDE8F04F1B
:100A800000F04CB90098012240000023D0EB020294
:100A900063EBE073009821464FEAE074B8EB000086
:100AA00061EB0401E9E783F000435BE781F000417B
:100AB00058E72DE9FE4F81EA030404F0004421F0D9
:100AC000004100944FF0000B23F0004350EA010472
:100AD0005ED052EA03045BD0C3F30A54C1F30A5553
:100AE0002C44A4F2F3340194A0FB0254C1F313018B
:100AF00041F48011C3F3130343F4801301FB024458
:100B000000FB034E840A970A44EA815447EA83575C
:100B1000A4FB076802958D0A05FB07854FEA932C15
:100B200004FB0C542705029D4FEA065847EA163786
:100B3000B5EB08056EEB070C870E920E47EA81179E
:100B400042EA8312A7FB0201B6EB0B0164EB00043F
:100B50002B0D43EA0C335E1844EB1C50DA46514629
:100B6000E7FB0201C5F313044FEA0B3343EA1453C6
:100B70004FEA0432019C43EA0603A4F10C040294F8
:100B8000009CCDE900B400F0D8F803B0BDE8F08FC8
:100B900000200146F9E72DE9F04D81EA030404F055
:100BA000004B21F0004514464FF0000A23F00041AD
:100BB00050EA050220D054EA01021DD0C5F30A57BD
:100BC0000246C5F31303C1F31300C1F30A5640F400
:100BD000801543F48013A7EB0608101BD64608F2D5
:100BE000FD3873EB050002D308F1010801E092180B
:100BF0005B41B8F1000F03DA00200146BDE8F08D3B
:100C000000204FF48011064684460EE0171B73EB5C
:100C1000050705D3121B63EB050306434CEA010CE1
:100C200049084FEA300092185B4150EA0107EDD1C4
:100C300052EA030012D082EA040083EA0501084365
:100C400005D0101BAB4106D20122002306E0002292
:100C50004FF0004302E06FF0010253101AEB060060
:100C60004CEB085110EB0A0041EB0B01BDE8F04DD5
:100C700000F054B8C1F30A52C1F3130140F2FF333C
:100C800041F480119A4202DA00200146704740F296
:100C900033439A42A2F2334202DC5242FFF752BE81
:100CA000FFF741BE30B5041E71F1000404DB4FF0C4
:100CB0000044404264EB0101141E73F1000405DBA3
:100CC0001C464FF00043524263EB0403994208BFB5
:100CD000904230BD064C074D06E0E06840F001034D
:100CE00094E8070098471034AC42F6D3FFF750FA67
:100CF0005861000878610008202A06DBCB17203AEB
:100D000041FA02F043EAE07306E041FA02F3D04010
:100D1000C2F12002914008431946704710B5141ED5
:100D200073F1000408DA401C41F1000192185B41A4
:100D30001A4301D120F0010010BD2DE9F04D92467B
:100D40009B4611B1B1FA81F202E0B0FA80F2203292
:100D50009046FFF7E8FD04460F4640EA0A0041EAE4
:100D60000B0153465A46084313D0114653EA01007B
:100D700019D0C8F140025046FFF7E4FD05460E4683
:100D8000504659464246FFF7CEFD084305D00120A4
:100D900004E020463946BDE8F08D0020054346EAD0
:100DA000E0762C4337430A986305E40AA0EB080079
:100DB0000022FD0A44EA47540A3002D500200146C9
:100DC000E9E7010510196941DDE9084500196941A4
:100DD000BDE8F04DA2E730B58C1810F8012B12F0E9
:100DE0000F0301D110F8013B120906D110F8012BB5
:100DF00003E010F8015B01F8015B5B1EF9D101E033
:100E000001F8013B521EFBD1A142E6D3002030BDC8
:100E10001EF0040F0CBFEFF30880EFF3098001F020
:100E20009BBA000010B5074A0021074804F0DCFA1D
:100E300006490860064A0021064804F0D5FA06492A
:100E4000086010BD2C5F00085D0E00085C85002066
:100E5000505F0008850F00085085002000BF03F098
:100E6000F3FB044606E0022003F03EFA6434204619
:100E700003F0CCFBF7E7000000BF01F0B1F903F08D
:100E80004BF80B4A00210B4804F0AEFA0A490860FF
:100E900001F058FCFFF7C6FF03F0D6FB044605E05F
:100EA00001F0E6FD0A34204603F0B0FBF8E700004D
:100EB000E45E0008BD0E0008548500202DED028B75
:100EC00002E0C82003F084FB224800780028F8D014
:100ED000214800686421B0FBF1F01F490860084612
:100EE000006820B99FED1D0A1D4880ED000A1A48D0
:100EF0000068642148431B49086000BF1948006826
:100F000019490860002017490860174890ED000A49
:100F1000F8EE400A104890ED000AB8EE400A80EE64
:100F2000801A9FED120A30EE410A0D4880ED000A4A
:100F300090ED000A10EE100AFFF7CCFC41EC180B04
:100F400053EC182B0AA002F0D1FA642003F040FB06
:100F5000D4E70000648500207085002000000000B8
:100F60006C85002068850020748500200000C84240
:100F70004F5343505555736167653A253032660DBE
:100F80000A0000001BE002F0ADFF0446A4B1012CF2
:100F900004D0042C06D0072C0CD107E008A002F0E6
:100FA000A5FA08E009A002F0A1FA04E00AA002F004
:100FB0009DFA00E000BF00BF142003F009FBE2E748
:100FC0004B31BCFCB0B4CFC20D0A00004B32BCFCAC
:100FD000B0B4CFC20D0A00004B33BCFCB0B4CFC2DA
:100FE0000D0A000000BFFEE7704701B9704700BF5F
:100FF000FEE700000146074A12780AB9002008E01F
:10100000054AC1F3C623D25CC1F30223DA4002F0E1
:101010000100704740990020C098002070B500BFC3
:101020000C48866900F0E2F8054600BF29460948E9
:101030001830FFF755FB044600BFB442F0D1A5427B
:1010400006D200BF03481030FFF741FB00BF00BFCE
:10105000284670BD409900202DE9F04104460D4618
:1010600016462046FFF7C6FF10B90120BDE8F08103
:10107000FFF7D4FF0746A4B200BFEFF3058010B11D
:101080004FF4002000E00020044344F04070334659
:101090002A46394600F03EF880464046E6E72DE90C
:1010A000F05F04460F4690469946DDF828A020469A
:1010B000FFF7A0FF10B90120BDE8F09FFFF7AEFFDA
:1010C0008346A4B200BFEFF3058010B14FF40020B7
:1010D00000E00020044300F0F5FA4FF4E02101EABB
:1010E000004544EA050141F0807043463A465946BE
:1010F00000F010F806460EB90020DDE745F00101CA
:1011000041F0007053464A46594600F003F806463F
:101110003046D1E72DE9FF4F81B0884691469A4687
:101120004FF0070B51E000BF2E48FFF7D0FA0646FC
:1011300006F03F002C4901EB0014B0094FF4700198
:1011400001EA00510091DDE9001008434FF08051A1
:1011500001EAD80108434FF0005101EA9901084320
:101160004FF0804101EA5A01084340F040652946AA
:1011700004F10C00FFF7BCFA054605F0806010B3DF
:1011800085F0806585F0004505F0004728F00040B7
:101190003843206029F00040384360602AF0004066
:1011A0003843A060294604F10C00FFF7B2FA48B1B9
:1011B00000BF0C48001DFFF78AFA00BF012005B0F0
:1011C000BDE8F08F04E0ABF1010BBBF1000FAAD139
:1011D00000BF00BF03480830FFF779FA00BF0020C6
:1011E000EDE7000044990020C094002001484068C9
:1011F00070470000001000E010B5044600222146B0
:101200000148FFF729FF10BD01F3010010B50446A6
:10121000002221460148FFF71FFF10BD05F3020021
:1012200010B50446002221464FF47340FFF714FF27
:1012300010BD000010B50446002221460148FFF70A
:101240000BFF10BD03F3020010B504460022214637
:101250000148FFF701FF10BD02F3010010B504467D
:10126000002221460148FFF7F7FE10BD04F30200FB
:1012700010B50446002221460148FFF7EDFE10BDDF
:101280000DF5020010B50446002221464FF47140CE
:10129000FFF7E2FE10BD000010B504460022214613
:1012A0000148FFF7D9FE10BD13F1010010B500226F
:1012B00011460248FFF7D0FE10BD000001F1010009
:1012C00010B5002211460248FFF7C6FE10BD00000F
:1012D00002F1020010B5002211460248FFF7BCFEE1
:1012E00010BD000007F1010010B5002211460248B0
:1012F000FFF7B2FE10BD000008F10200F8B5044689
:101300000D4616461F4633462A4621460248009798
:10131000FFF7C5FEF8BD000001F0020070B50446FD
:101320000D462A4621460248FFF796FE70BD000092
:1013300004F00200F8B504460D4616460020334678
:101340002A46214600900248FFF7A9FEF8BD00009A
:1013500005F00200F8B504460D4616461F46334612
:101360002A46214602480097FFF799FEF8BD000083
:1013700003F00200F8B504460D4616460020334639
:101380002A46214600900248FFF789FEF8BD00007A
:1013900002F00200F8B504460D461646002033461A
:1013A0002A46214600904FF43C30FFF778FEF8BD06
:1013B00010B50446002221460148FFF74DFE10BD3E
:1013C00008F9020070B504460D462A462146024837
:1013D000FFF742FE70BD000003FA020070B504463C
:1013E0000D462A4621464FF47A40FFF735FE70BD80
:1013F000F8B504460D4616461F4633462A46214692
:1014000002480097FFF74BFEF8BD00000CFA010000
:10141000F8B504460D461646002033462A462146B6
:1014200000900248FFF73BFEF8BD00000DFA0200F5
:1014300010B50446002221460148FFF70DFE10BDFD
:101440000EFA020070B504460D462A4621460248AF
:10145000FFF702FE70BD000009FA020070B50446F5
:101460000D462A4621460248FFF7F6FD70BD0000F2
:101470000AFA0200F8B504460D4616460020334627
:101480002A46214600900248FFF709FEF8BD0000F9
:1014900001FA010070B504460D462A46214602486D
:1014A000FFF7DAFD70BD00000BFA020070B50446CC
:1014B0000D462A4621460248FFF7CEFD70BD0000CA
:1014C00010FA0200F8B504460D4616461F4633468C
:1014D0002A46214602480097FFF7E1FDF8BD0000CB
:1014E00006FA0100F8B504460D46164600203346BC
:1014F0002A46214600900248FFF7D1FDF8BD0000C2
:1015000007FA020010B50446002221460148FFF701
:10151000A3FD10BD08FA020070B504460D462A4628
:1015200021460248FFF798FD70BD00000FFA020047
:1015300010B50446002221460148FFF78DFD10BD7D
:1015400008F7020070B504460D462A4621460248B7
:10155000FFF782FD70BD000009F7020070B5044678
:101560000D462A4621460248FFF776FD70BD000071
:101570000CF7020010B50446002221460148FFF78F
:101580006BFD10BD08F8020070B504460D462A46F2
:1015900021460248FFF760FD70BD000016F203000F
:1015A00070B504460D4616462EB132462146054812
:1015B000FFF752FD05E02A46214602482938FFF789
:1015C0004BFD70BD2CF2020010B5044600222146EE
:1015D0000148FFF741FD10BD1CF2020070B5044642
:1015E0000D462A4621464FF47240FFF735FD70BD87
:1015F00010B5002211460248FFF72EFD10BD000075
:101600001AF20100F8B504460D4616461F46334649
:101610002A46214602480097FFF741FDF8BD000029
:1016200009F4020010B50446002221460148FFF7E4
:1016300013FD10BD08F4020010B504460022214637
:101640000148FFF709FD10BD15F20200F8B5044688
:101650000D461646002033462A4621460090024891
:10166000FFF71DFDF8BD000001F2010010B50446B2
:10167000002221460148FFF7EFFC10BD18F20300DD
:1016800010B50446002221460148FFF7E5FC10BDD5
:1016900019F2020070B504460D462A46214602485A
:1016A000FFF7DAFC70BD000017F2030070B50446C6
:1016B0000D462A4621460248FFF7CEFC70BD0000C9
:1016C00001F6020010B50248FEF7F8FF10BD000059
:1016D0004199002001200149086070470004274219
:1016E000F8B502460B460025002400200021DCE06E
:1016F000012606FA01F51E6806EA0504AC4273D11C
:101700005E68022E02D05E68122E13D1CF0802F15D
:10171000200656F827004E07F70E0F26BE40B043AE
:101720004F07FF0E1E69BE403043CF0802F120066E
:1017300046F8270010684F000326BE40B0431E79CC
:1017400006F003064F00BE40304310605E68012E75
:1017500008D05E68022E05D05E68112E02D05E6849
:10176000122E13D190684F000326BE40B0434F00A5
:10177000DE68BE4030439060506801268E40B04322
:101780001E79C6F300168E4030435060D0684F007B
:101790000326BE40B0434F009E68BE403043D06039
:1017A0005E6806F08056B6F1805F7DD100BF0026EE
:1017B0000096404E366846F480463E4F3E603E46B8
:1017C000366806F48046009600BF00BF3A4E8F0888
:1017D00056F827008E07370F0F26BE40B043374E0E
:1017E000B24202D1002624E05EE0354EB24201D181
:1017F00001261EE0334EB24201D1022619E0324EDC
:10180000B24201D1032614E0304EB24201D1042687
:101810000FE02F4EB24201D105260AE02D4EB24212
:1018200001D1062605E02C4EB24201D1072600E088
:1018300008268F073F0FBE4030431F4E8F0846F8E3
:101840002700264E3068A0435E6806F48036B6F561
:10185000803F00D12043214E3060361D3068A043C8
:101860005E6806F40036B6F5003F00D120431B4EFB
:10187000361D3060361D3068A0435E6806F4801661
:10188000B6F5801F00D12043144E08363060361D57
:101890003068A0435E6806F40016B6F5001F00D15C
:1018A00020430E4E0C363060491C1029FFF420AF47
:1018B000F8BD0000443802400838014000000240F2
:1018C0000004024000080240000C024000100240E8
:1018D0000014024000180240001C0240003C01407D
:1018E00001480068704700009885002003480068A0
:1018F0000349097808440149086070479885002029
:10190000A085002010B50D48006840F400700B4918
:1019100008600846006840F4806008600846006877
:1019200040F480700860032000F0C2F80F2000F03F
:1019300007F800F06DF8002010BD0000003C0240E8
:10194000F0B587B0074600250026234823490860E4
:10195000084600F05DFC18B12D2121A0FFF745FBE2
:1019600000220521372000F064F8372000F051F8FC
:1019700000BF002000902448006840F02000224969
:1019800008600846006800F02000009000BF00BF1B
:1019900001A902A800F060F9059D1DB900F084F9C5
:1019A000044602E000F080F944001848B4FBF0F06F
:1019B000461E40F2E7310948C160466000210161DE
:1019C000816000F048FC20B9044800F075FC07B0C5
:1019D000F0BD0120FBE7000000140040648F0020F0
:1019E0002E2E5C2E2E5C557365725C73746D3332D3
:1019F000663478785F68616C5F74696D6562617385
:101A0000655F74696D2E63004038024040420F00EC
:101A1000704701460846002809DB00F01F03012239
:101A20009A4043099B0003F1E023C3F8002100BF63
:101A300070472DE9F05F80460D461646002701F0FD
:101A400065FD074639462A46334601F00700C0F1D6
:101A5000070ABAF1040F02D94FF0040A01E0C0F1FD
:101A6000070AD14600F1040ABAF1070F02D24FF07B
:101A7000000A01E0A0F1030AD4464FF0010A0AFA75
:101A800009FAAAF1010A0AEA020A0AFA0CFA4FF064
:101A9000010B0BFA0CFBABF1010B0BEA030B4AEA4F
:101AA0000B042146404601F039FDBDE8F09F0000DF
:101AB00000BF00F00702064B19684FF6FF031940FC
:101AC000044B0B4343EA0221014B196000BF7047EE
:101AD0000CED00E00000FA0570B504460D460CB9A7
:101AE000012070BD5848006800F00F00A84209D2DC
:101AF00055490D700846006800F00F00A84201D05B
:101B00000120EEE7207800F0020002281DD12078A5
:101B100000F00400042805D14C48006840F4E0506F
:101B20004A490860207800F00800082805D1474895
:101B3000006840F46040454908604448006820F06F
:101B4000F000A168084341490860207800F00100D6
:101B5000A8B36068012807D13C4808380068C0F382
:101B60004040B8B90120BCE76068022802D0606834
:101B7000032807D1354808380068C0F3406048B9E9
:101B80000120AEE7314808380068C0F3400008B9CA
:101B90000120A6E72D48006820F003006168084393
:101BA0002A490860FFF79CFE064609E0FFF798FE09
:101BB000801B41F28831884202D9032091E707E077
:101BC0002248006800F00C006168B0EB810FEDD195
:101BD0001D48006800F00F00A84209D91A490D708D
:101BE0000846006800F00F00A84201D0012078E705
:101BF000207800F00400042807D11448006820F47D
:101C0000E050E168084311490860207800F00800BE
:101C1000082808D10D48006820F46040216940EA96
:101C2000C1000A49086000F05FF808490968C1F37B
:101C30000311074A515CC840064908600F20FFF7AE
:101C40007FFE00204DE70000003C024008380240C3
:101C5000B45F0008A48500200F2202600D4A1268BC
:101C600002F0030242600B4A126802F0F002826046
:101C7000084A126802F4E052C260064A126802F48E
:101C80006042D2080261044A126802F00F020A6040
:101C90007047000008380240003C024001480068DC
:101CA00070470000A485002000B5FFF7F7FF044946
:101CB0000968C1F38221034A515CC84000BD00009D
:101CC00008380240C45F000800B5FFF7E7FF044989
:101CD0000968C1F34231034A515CC84000BD0000AD
:101CE00008380240C45F00082DE9F04700240025B1
:101CF0000026A1462548006800F00C0020B1042809
:101D000005D008283AD105E0DFF8849039E0DFF803
:101D1000849036E01D48001F006800F03F041B4817
:101D2000001F006800F4800078B11A481749091FA5
:101D30000968C1F38811A0FB017001462246002307
:101D40003846FEF769FD05460EE011480F49091FA8
:101D50000968C1F38811A0FB0170014622460023E7
:101D60003846FEF759FD05460848001F0068C0F3D5
:101D70000140401C4600B5FBF6F902E0DFF8109088
:101D800000BF00BF4846BDE8F087000008380240A9
:101D90000024F40040787D01F8B504460CB9012018
:101DA000F8BD207800F00100002874D0F9480068E0
:101DB00000F00C0004280DD0F648006800F00C007C
:101DC000082813D1F348001F006800F48000B0F524
:101DD000800F0BD1EF4808380068C0F3404000285E
:101DE00059D06068002856D10120D9E700BF60684B
:101DF000B0F5803F08D1E7480838006840F48030EB
:101E0000E449083908601EE06068B0F5A02F0DD1E4
:101E1000E0480838006840F48020DE49083908604E
:101E20000846006840F4803008600CE0D948083863
:101E3000006820F48030D7490839086008460068F7
:101E400020F48020086000BF606890B1FFF748FD73
:101E5000054606E0FFF744FD401B642801D9032036
:101E60009EE7CC4808380068C0F340400028F1D015
:101E700011E0FFF735FD054606E0FFF731FD401B99
:101E8000642801D903208BE7C24808380068C0F3F2
:101E900040400028F1D1207800F0020002285FD1F4
:101EA000BC48006800F00C0058B1BA48006800F067
:101EB0000C0008281CD1B748001F006800F48000FF
:101EC000B0B9B44808380068C0F3400020B1E068F9
:101ED000012801D0012063E7AE480838006820F0EF
:101EE000F800216940EAC100AA490839086037E0D2
:101EF000E06800B30120A8490860FFF7F1FC05463F
:101F000006E0FFF7EDFC401B022801D9032047E75C
:101F1000A04808380068C0F340000028F1D09D4870
:101F20000838006820F0F800216940EAC1009949AA
:101F30000839086014E0002097490860FFF7D0FCDA
:101F4000054606E0FFF7CCFC401B022801D9032020
:101F500026E7904808380068C0F340000028F1D117
:101F6000207800F0080008282CD16069A8B1012071
:101F70008A490860FFF7B4FC054606E0FFF7B0FCAD
:101F8000401B022801D903200AE782486C30006810
:101F9000C0F340000028F1D014E000207F49086021
:101FA000FFF79EFC054606E0FFF79AFC401B02285F
:101FB00001D90320F4E677486C300068C0F3400094
:101FC0000028F1D1207800F00400042870D1002608
:101FD00070483830006800F0805090B900BF002091
:101FE00000906C483830006840F0805069493831C2
:101FF00008600846006800F08050009000BF00BFF5
:1020000001266748006800F48070B0B96448006831
:1020100040F4807062490860FFF762FC054606E004
:10202000FFF75EFC401B022801D90320B8E65C489C
:10203000006800F480700028F2D000BFA06801287A
:1020400008D154486830006840F0010051496831B7
:1020500008601DE0A06805280DD14E486830006872
:1020600040F004004B49683108600846006840F0C1
:10207000010008600CE047486830006820F001006B
:102080004449683108600846006820F00400086090
:1020900000BFA068A8B1FFF723FC054609E0FFF7E1
:1020A0001FFC401B41F28831884202D9032077E6A9
:1020B00026E0384868300068C0F340000028EED0C1
:1020C00013E0FFF70DFC054608E0FFF709FC401B95
:1020D00041F28831884201D9032061E62D486830F9
:1020E0000068C0F340000028EFD1012E07D1294835
:1020F0003830006820F0805026493831086000BF31
:10210000A069B8B32348006800F00C0008285ED02E
:10211000A069022846D100201F490866FFF7E0FBAE
:10212000054606E0FFF7DCFB401B022801D903202F
:1021300036E6184808380068C0F340600028F1D13E
:10214000D4E907010843616A40EA81110122A06ACB
:10215000C2EB500041EA00412C20005D41EA0060E2
:102160000C49091F086001200B490866FFF7B8FBFE
:10217000054607E02DE0FFF7B3FB401B022801D91D
:1021800003200DE6034808380068C0F340600028CB
:10219000F1D01EE00838024000004742800E47425E
:1021A0000070004000200C490866FFF799FB0546C7
:1021B00006E0FFF795FB401B022801D90320EFE55D
:1021C00006480068C0F340600028F2D101E0012019
:1021D000E6E50020E4E50000000047420038024048
:1021E00004480068C06840F0010002490968C860FE
:1021F00070470000648F002004480068C06820F029
:10220000010002490968C86070470000648F00201F
:1022100010B50446022084F83D0000BF2068006A23
:1022200041F21111084050B92068006A8910084035
:1022300028B92068006820F001002168086000BF0C
:10224000204600F022F8002084F83D0000BF84F80A
:102250003C0000BF10BD10B504460CB9012010BDF4
:1022600094F83D0028B9002084F83C00204600F096
:102270000DF8022084F83D00211D206800F072FD59
:10228000012084F83D000020E9E7704770470146CF
:10229000022081F83D000868806800F00702062AE5
:1022A00005D00868006840F001000B681860012044
:1022B00081F83D000020704701460868C06840F082
:1022C00001000B68D8600868806800F00702062AE1
:1022D00005D00868006840F001000B681860002015
:1022E000704710B504460CB9012010BDA06900B1BB
:1022F00000E000BF94F8390028B9002084F83800C5
:10230000204600F027F8242084F839002068C068AF
:1023100020F400502168C860204600F0E7FD2068E6
:10232000006920F49040216808612068406920F02D
:102330002A00216848612068C06840F40050216884
:10234000C8600020E063202084F8390084F83A0057
:102350000020CAE77047000010B53249096801F053
:10236000004149B12F49096841F000412D4A1160EF
:102370008169891C816110BD2A49083909682A4A86
:1023800011622849091F097882F824102549C91EBD
:102390000978916223490C310968D1622149891E6B
:1023A000098811861F49096851631E49091D09687A
:1023B00091631C4910310968D1631CA200210BE014
:1023C000535C254C636000BF234B1B6803F0400344
:1023D000002BF9D04B1CD9B22929F1D300211F4A77
:1023E000116000BF1D4909680029FBD00E4A016831
:1023F00011604168516081689160C168D160016974
:1024000011614169516181699161C169D1610021A5
:10241000124A116000BF114909680029FBD000BFB2
:10242000A9E700002CED00E0A48F00200D0A456E06
:1024300074657220486172644661756C745F4861AE
:102440006E646C65722C2053797374656D204861DD
:102450006C742E0D0A00000000100140A8850020B9
:1024600000B587B000BF002001903348006840F0FD
:102470000100314908600846006800F00100019041
:1024800000BF00BF00BF002001900846006840F078
:10249000010008600846006800F00100019000BFDC
:1024A00000BF00BF0020019023481430006840F0B6
:1024B00010002149143108600846006800F010003F
:1024C000019000BF00BF4815029002200390012038
:1024D0000490032005900720069002A91748FFF7F3
:1024E000FFF84FF4806002900720069002A913487D
:1024F000FFF7F6F8002204212520FFF79AFA25209D
:10250000FFF787FA0C2300224FF4E1310C4801F069
:102510003DFF0B48006820F040000949086008466C
:10252000006820F0200008600846C06840F02000E5
:10253000C86007B000BD0000303802400000024013
:102540000010014000BFEFF3108018B900BFEFF397
:10255000118008B1012070470020FCE700BFEFF3B5
:10256000108018B900BFEFF3118008B10120704747
:102570000020FCE700BFEFF3108018B900BFEFF3B5
:10258000118008B1012070470020FCE700BFEFF385
:10259000108018B900BFEFF3118008B10120704717
:1025A0000020FCE700BFEFF3058008B10120704771
:1025B0000020FCE700BFEFF3058008B10120704761
:1025C0000020FCE700BFEFF3058008B10120704751
:1025D0000020FCE700BFEFF3058008B10120704741
:1025E0000020FCE72DE9F0410446082C17DA00260C
:1025F000FF27002508E0284600F030F810B1701CD5
:10260000C6B22F46681CC5B2082DF4DB012E04D1DA
:10261000A74202D10120BDE8F0810020FBE7082C91
:102620000BD1002000F01AF828B1012000F016F8B4
:1026300008B10120EFE70020EDE7092C0BD10120C4
:1026400000F00CF828B1022000F008F808B10120D1
:10265000E1E70020DFE70020DDE7000001460B484E
:1026600050F831000069094B03EBC1039B88184007
:1026700008B9002200E00122044800EBC100807983
:10268000904201D1012070470020FCE7745F0008F0
:1026900010B502465318184610BD00BFFEE72DE9DD
:1026A000F041054605F12800FDF78BFE074667B1AE
:1026B000EC6A07E00121A01CFDF714FE064606B9EE
:1026C00002E0A468002CF5D100E000242046BDE81B
:1026D000F0812DE9F04105460C46286BA0B12E6B28
:1026E000002701E0374676681EB1F078E17888422D
:1026F000F8DB6660A7600EB1B46000E0EC620FB179
:102700007C6006E02C6304E000206060A060EC6266
:102710002C6305F12800FDF726FEBDE8F0814A682C
:102720001AB1D1E901329A6001E08A68C2628A680E
:102730001AB1D1E901235A6001E04A680263704787
:102740007047000010B5002009490870022001F010
:102750003FFF002007490860642001F039FF054869
:1027600000680549086001200149087010BD00009B
:102770006485002068850020708500204FF0E020EF
:10278000006970470948007830B100200749087097
:102790004FF08060064908604FF0E020006940F08B
:1027A00001004FF0E021086170470000AC85002077
:1027B00004ED00E04FF0FF307047000010B5024616
:1027C0000B4612B94FF0FF3010BD0D480068B0FB4A
:1027D000F2F0411EB1F1807F02D34FF0FF30F3E7FA
:1027E000FF240848C47206204FF0E02420612046F0
:1027F00041610020A061044C207000BFE4E70000AC
:10280000A485002018ED00E0AC85002000B587B05D
:1028100000BF002001900D48006840F002000B4905
:1028200008600846006800F00200019000BF00BF89
:1028300001200390002004900320059004200290C2
:1028400002A90348FEF74CFF07B000BD3038024034
:10285000000402402DE9F04704460E46174698460C
:10286000DDF8209000BF2448007808B900F098FDFA
:1028700000BF21484069A04239D9EFF311810846D1
:10288000202181F3118800BF00BF0CB304EB440288
:102890001949603141F8326004EB440201EBC20196
:1028A0004F6004EB44021449603101EBC201C1F8EE
:1028B0000880002204EB44030F49603101EBC3019F
:1028C0000A6104EB44030C49603101EBC301CA60A7
:1028D00004EB44020849603101EBC201C1F81490D5
:1028E000C1B281F3118800BF00BF002501E04FF0A5
:1028F000FF352846BDE8F087E48F00202DE9F0473A
:1029000004460E4617469846DDF8209000BF24483E
:10291000007808B900F044FD00BF21480069A042DA
:1029200039D9EFF311810846202181F3118800BFC6
:1029300000BF0CB304EB44021949183141F832606E
:1029400004EB440201EBC2014F6004EB4402144962
:10295000183101EBC201C1F80880002204EB4403E6
:102960000F49183101EBC3010A6104EB44030C4920
:10297000183101EBC301CA6004EB44020849183165
:1029800001EBC201C1F81490C1B281F3118800BFFC
:1029900000BF002501E04FF0FF352846BDE8F08775
:1029A000E48F00202DE9F04104460D46164600BF95
:1029B0000D48007808B900F0F3FC00BFEFF3118078
:1029C0000746202080F3118800BF00BF3246294609
:1029D000204600F00BF88046F8B280F3118800BF63
:1029E00000BF4046BDE8F081E48F00202DE9F047AC
:1029F000074688461646C24607EB47011B4800EBD0
:102A0000C109D9F8140020B1012811D0022826D11B
:102A10001EE0484600F0FCFC0546B54201D2002409
:102A200005E0344632465146484600F038FD18E08D
:102A3000484600F0EDFC0546B54201D2284600E0CC
:102A40003046044622465146484600F028FD08E03C
:102A500032465146484600F0E9FC044601E00024B5
:102A600000BF00BF2046BDE8F0870000FC8F0020BB
:102A700010B51B48006840B119480068401E18494D
:102A8000086010B9012017490870002408E004EB21
:102A90004401154A02EB810001F0A8FC601CC4B29D
:102AA000042CF4DB11480068401C104908600846FB
:102AB00000686FF00041884202D100200B49086095
:102AC00001F050FC0A480078401CC0B20849087068
:102AD0000A2803DB0020087001F040FC10BD000054
:102AE000888500208C8500200887002090850020A4
:102AF0009585002000B593B014210EA8FDF7D6FEF1
:102B0000302102A8FDF7D2FE00BF0020019030481E
:102B1000006840F080502E4908600846006800F0C8
:102B20008050019000BF00BF00BF002001902948E5
:102B3000006840F48040274908600846006800F4B7
:102B40008040019000BF00BF01200290000403906C
:102B5000022008904105099119210A914FF4A871AA
:102B60000B9102210C9104210D9102A8FFF714F999
:102B700018B1802118A0FEF738FA0F200E9002201D
:102B80000F90002010904FF4A05011904FF48050FF
:102B9000129005210EA8FEF79FFF18B193210EA0F9
:102BA000FEF723FA00BF002001900948001D0068CD
:102BB00040F480400649091D08600846006800F49A
:102BC0008040019000BF00BFFEF784FD13B000BD40
:102BD00040380240007000402E2E5C2E2E5C557353
:102BE00065725C6273705C6273702E63000000003B
:102BF0001448006840F470001249086012480068E8
:102C000040F001001049086000200F4908310860B9
:102C10000D4800680D4908400B4908600C48091D23
:102C20000860081F006820F48020091F0860002049
:102C300005490C3108604FF0006002498039086096
:102C40007047000088ED00E000380240FFFFF6FE0C
:102C50001030002408B5FEF755FEFFF74BFF0220A9
:102C600000231A4606A100901846FFF747FE0220EF
:102C700000231A4604A100901846FFF7EBFD08BD9B
:102C80005254545550000000525454444F574E0073
:102C900070B5002500264FF08044206900F0020541
:102CA000E06800F002065DB156B14FF6FD7020619C
:102CB000E0684FF6FD710840E0601E4800688047FC
:102CC000206900F00405E06800F004065DB156B12B
:102CD0004FF6FB702061E0684FF6FB710840E06042
:102CE000154800688047206900F00805E06800F09A
:102CF00008065DB156B14FF6F7702061E0684FF6F7
:102D0000F7710840E0600D4800688047206900F0D6
:102D10001005E06800F010065DB156B14FF6EF7097
:102D20002061E0684FF6EF710840E06004480068F9
:102D3000804770BD788500207C850020808500203C
:102D40008485002010B50648006800F0010028B115
:102D50006FF0010002490860FEF7C8FD10BD0000D9
:102D60001014004010B50268294B98420ED0B0F103
:102D7000804F0BD0274B984208D0274B984205D064
:102D8000264B984202D0264B984203D122F0700283
:102D90004B681A431E4B984220D0B0F1804F1DD093
:102DA0001C4B98421AD01C4B984217D01B4B984290
:102DB00014D01B4B984211D01A4B98420ED01A4B8C
:102DC00098420BD0194B984208D0194B984205D025
:102DD000184B984202D0184B984203D122F440720B
:102DE000CB681A4322F080034C6943EA0402026074
:102DF0008B68C3620B688362054B984202D0084B14
:102E0000984201D10B6903630123436110BD0000A7
:102E1000000001400004004000080040000C004099
:102E200000040140004001400044014000480140CE
:102E300000180040001C0040002000402DE9F04137
:102E400007460E46154605F0020080B905F0010060
:102E500030B1314607F12800FDF7A9FB044615E023
:102E6000314607F12800FDF7B5FB04460EE0BC6AC9
:102E700005F0010018B104EA0600B04205D105F0E2
:102E8000010018B904EA060000B900242046BDE894
:102E9000F081000030B5024600230D4C606C03E069
:102EA0000469091B0346C06810B104698C42F7D954
:102EB00011619360D06020B104691569641B0461DD
:102EC00082600BB1DA6001E0014C626430BD000049
:102ED000B4850020C16811B1D0E902129160024AA4
:102EE000C168516470470000B48500202DE9F041AD
:102EF00004462068006920F44050E16808432168D6
:102F000008612169A068084361690843E16940EAF2
:102F100001052068C06849F20C6188432843216894
:102F2000C8602068406920F44070A16908432168A6
:102F30004861E069B0F5004F7ED1C44920688842FD
:102F400003D0C349206888425DD1FEF7BDFE00EB87
:102F5000C00101EB001061684900B0FBF1F0642191
:102F6000B0FBF1F00601FEF7AFFE00EBC00101EB94
:102F7000001061684900B0FBF1F7FEF7A5FE00EB19
:102F8000C00101EB001061684900B0FBF1F0642161
:102F9000B0FBF1F000EBC00101EB0010A7EB8000EB
:102FA000322101EBC0006421B0FBF1F000F0F80029
:102FB00006EB4006FEF788FE00EBC00101EB0010B7
:102FC00061684900B0FBF1F7FEF77EFE00EBC0013F
:102FD00001EB001061684900B0FBF1F06421B0FB27
:102FE000F1F000EBC00101EB0010A7EB80003221F3
:102FF00001EBC0006421B0FBF1F000F007003044A9
:103000002168886020E1FEF74FFE00EBC00101EB74
:10301000001061684900B0FBF1F06421B0FBF1F0F1
:103020000601FEF741FE00EBC00101EB00106168F4
:103030004900B0FBF1F700E045E0FEF735FE00EB9C
:10304000C00101EB001061684900B0FBF1F06421A0
:10305000B0FBF1F000EBC00101EB0010A7EB80002A
:10306000322101EBC0006421B0FBF1F000F0F80068
:1030700006EB4006FEF718FE00EBC00101EB001066
:1030800061684900B0FBF1F7FEF70EFE00EBC001EE
:1030900001EB001061684900B0FBF1F06421B0FB66
:1030A000F1F000EBC00101EB0010A7EB8000322132
:1030B00001EBC0006421B0FBF1F000F007003044E8
:1030C00021688860C0E061492068884203D0604977
:1030D000206888425CD1FEF7F7FD00EBC00101EBF0
:1030E000001061688900B0FBF1F6FEF7EDFD00EB22
:1030F000C00101EB001061688900B0FBF1F06421B0
:10310000B0FBF1F000EBC00101EB0010A6EB80007A
:10311000322101EB00106421B0FBF1F000F0F00669
:10312000FEF7D2FD00EBC00101EB001061688900E1
:10313000B0FBF1F06421B0FBF1F006EB0016FEF7F6
:10314000C3FD00EBC00101EB001061688900B0FB1A
:10315000F1F7FEF7B9FD00EBC00101EB001061686B
:103160008900B0FBF1F06421B0FBF1F000EBC0018D
:1031700001EB0010A7EB8000322101EB001064216D
:10318000B0FBF1F000F00F003044216888605BE094
:10319000FEF78AFD00EBC00101EB001061688900B9
:1031A000B0FBF1F6FEF780FD00EBC00101EB001073
:1031B00061688900B0FBF1F06421B0FBF1F000EB35
:1031C000C00101EB0010A6EB8000322101EB0010E2
:1031D0006421B0FBF1F000F0F006FEF765FD00EBB6
:1031E000C00101EB001061688900B0FBF1F06421BF
:1031F000B0FBF1F006EB0016FEF756FD00EBC00148
:1032000001EB001061688900B0FBF1F7FEF74CFD9F
:1032100000EBC00101EB001061688900B0FBF1F028
:103220006421B0FBF1F000EBC00101EB0010A7EB53
:103230008000322101EB00106421B0FBF1F000F0BE
:103240000F00304421688860BDE8F0810010014023
:103250000014014010B5024800F004F810BD000051
:10326000388700202DE9F041044620680568206871
:10327000C6682068D0F8148005F02000D8B1206816
:103280004068C7B2E18AA0684754E08A401C80B217
:10329000E082E189884201DB0020E082608BE189E5
:1032A000884202DA608B401C6083606A10B1384645
:1032B000616A884700BF05F0800028B306F08000EF
:1032C00010B3A08A60B92068C06820F0800021682F
:1032D000C8602068C06840F040002168C86013E002
:1032E000012084F82800618A6068405C2168486099
:1032F000608A401C80B26082A189884201DB002084
:103300006082A08A401EA08205F0400018B306F03B
:10331000400000B3A08A68B92068C06820F040006F
:103320002168C860206A08B1206A8047002084F8BC
:10333000280010E0618A6068405C21684860608A0B
:10334000401C80B26082A189884201DB002060823B
:10335000A08A401EA082BDE8F08100000B480C4905
:1033600008600C4848600C4888604FF48060888191
:10337000C881002008824882C882088348838882E6
:10338000C8610862486281F8280070470010014057
:103390003887002064870020648B002000BFFEE790
:1033A00010B5124C03202061606111A0A061134987
:1033B000E1614FF4806121620021A1626162E162FA
:1033C0000BA020660E4961661021A16600212167CD
:1033D000E16661670BA1E01DFDF773FA0AA12046C3
:1033E000FDF76FFA2020A07110BD0000E48F0020CF
:1033F0005465726D696E616C000000008C90002055
:103400008C940020525454005345474745520000C5
:1034100010B501460A69CB689A4204D88C68641ECC
:10342000E41AA01801E0D41A601E10BD2DE9F0477F
:103430000446894617464FF0000AE56800BFD4F8F5
:103440001080A84503D9A8EB0500461E04E0A5EBB3
:103450000800401CA1680E1AA068401BB04201D9A8
:10346000304601E0A068401B0646BE4201D230460D
:1034700000E0384606466168481932464946FDF77D
:10348000FCF9B244B144BF1B3544A068A84200D146
:103490000025E560002FD2D15046BDE8F0872DE928
:1034A000F047044689461546E668A068871BAF4288
:1034B00008D9616888192A464946FDF7DEF970196E
:1034C000E06010E0B8466168881942464946FDF759
:1034D000D4F9A5EB070809EB070142466068FDF740
:1034E000CCF9C4F80C80BDE8F08700000FB4054BA0
:1034F00010B503A9044A029800F0F6F810BC5DF874
:1035000014FB000009440008B08500200248006850
:10351000C0F30220704700000CED00E010B5002859
:1035200004DB0A07130E054A135406E00A07140EBB
:10353000034A00F00F031B1FD45410BD00E400E049
:1035400018ED00E002E008C8121F08C1002AFAD1F5
:1035500070477047002001E001C1121F002AFBD113
:10356000704700002DE9FF5F82B00021DDE90430E3
:10357000020DDDF840B0034318D044F61050A2F21B
:10358000FF3242431514119801281FD0A5EB0B0000
:10359000401C5FEA000A4FF000064E4FDFF83891FA
:1035A000B046504615D5CAF1000413E01198012425
:1035B0004AA3012801D16FEA0B010298119AC0E9D0
:1035C0000031C0E9024206B0BDE8F09FCBF1000037
:1035D000DFE704460021404A491842EB0450CDE998
:1035E000001012E0E00707D032463B46404649460D
:1035F000FDF75FFA8046894632463B46104619463B
:10360000FDF757FA06460F466410002CEAD1DDE9B3
:103610000401DDE90023BAF1000F06DAFDF749FAEB
:1036200042464B46FDF745FA05E0FDF7B4FA42463F
:103630004B46FDF7B0FA04460E460022284BFDF734
:1036400031FB03D84FF0FF30014607E00022254B45
:1036500020463146FDF786F9FDF70CFB102409E002
:10366000002C0ADB0A220023FDF7D6F8039B303238
:103670001A55641E50EA0102F2D1641C039AC4F187
:1036800011031444119A012A03D0012208430DD1D9
:103690000AE0084304D000204FF0110B119072E7AC
:1036A000A3EB0B056D1E0DE05B4504DD4FF0000242
:1036B00005F1010504E003DA4FF00002A5F1010570
:1036C000002AECD002981199C0E90231C0E9004506
:1036D00079E70000000014400000F03F30000000D7
:1036E0000000F0430000E03F2DE9FF4F95B09B46FE
:1036F0008946064600250FE2252877D10024274673
:10370000F84A0121059400E0044316F8013F203BEC
:1037100001FA03F01042F7D130782A2811D06FF067
:103720002F033078A0F13002092A16D8059A44F008
:10373000020402EB820203EB42021044761C059065
:10374000EFE759F8042B0592002A03DA504244F4BB
:103750000054059044F00204761C30782E2816D1CF
:1037600016F8010F44F004042A280DD06FF02F0240
:103770003078A0F13003092B09D807EB870302EB5F
:103780004303C718761CF3E759F8047B761C30789E
:103790006C280FD006DC4C2817D068280DD06A287A
:1037A00014D104E0742810D07A280FD10DE044F42D
:1037B00000140AE044F4801401E044F440147278E8
:1037C000824202D104F58014761C761C307866287B
:1037D0000BD013DC582877D009DC002875D0452899
:1037E000F6D04628F4D047281AD19DE118E0632886
:1037F00035D0642879D0652812D195E1702873D02E
:1038000008DC6728F1D069286FD06E280DD06F28AA
:1038100006D1B5E073282CD0752875D0782874D0DF
:103820005A46179990476D1C75E1C4F3025002285F
:1038300009D003280DD0D9F8001004280DD00D6050
:1038400009F1040967E1D9F80010EA17C1E900524B
:10385000F6E7D9F800100D80F2E70D70F0E719F8DF
:10386000041B8DF8001000208DF80100EA460120AD
:1038700003E059F804AB4FF0FF3061074FF000014F
:1038800002D40DE008F101018846B9420FDA804503
:10389000F8DB1AF808100029F4D108E008F101015A
:1038A00088468142FADB1AF808100029F6D10598FB
:1038B0005B46A0EB080721463846179A00F094FAB9
:1038C000284400EB080507E04DE029E10DE01AF877
:1038D000010B5A4617999047B8F10108F7D25B4699
:1038E00021463846179A13E142E00A220092C4F3B7
:1038F00002524FF0000A022A08D059F804CB032ADA
:103900004FEAEC710AD00DE029E02AE009F1070145
:1039100021F00702F2E802C1914609E00FFA8CFC9F
:103920004FEAEC71042A03D14FFA8CFC4FEAEC7198
:10393000002907DA0A460021DCF1000C61EB0201E4
:103940002D2202E0220504D52B228DF8042001222D
:1039500003E0E20701D02022F7E7904659E00A2170
:1039600002E010220DE010214FF0000A00910BE060
:1039700010224FF0000A44F004040827009203E0EC
:1039800008224FF0000A0092C4F30252022A05D026
:1039900059F804CB0021032A08D009E009F10701F6
:1039A00021F00702F2E802C1914605E01FFA8CFC03
:1039B000042A01D10CF0FF0C4FF00008220728D593
:1039C000702806D0009B83F0100353EA0A0305D049
:1039D0000EE040228DF80420012208E05CEA01029A
:1039E00006D030228DF804208DF805000222904682
:1039F000009B83F0080353EA0A030AD15CEA010240
:103A000001D1620705D530228DF804204FF001085E
:103A10007F1E582804D034A003900EA802900DE019
:103A200036A0F9E753466046009AFCF7F5FE844657
:103A30000398825C0298401E029002705CEA0100CA
:103A4000F0D1029806A9081A00F1200A600702D5F1
:103A500024F4803400E00127574502DDA7EB0A007B
:103A600000E0002000EB0A01009005984144401A54
:103A70000590E00306D45B462146179A059800F0AE
:103A8000B3F90544002706E001A85A46C05D17991E
:103A900090476D1C7F1C4745F6DBE0030CD55B4669
:103AA0002146179A059800F09FF9054404E030205C
:103AB0005A46179990476D1C0099481E009000299E
:103AC000F5DC08E0029802995A460078491C0291F8
:103AD000179990476D1CBAF10001AAF1010AF1DCB7
:103AE00065E10000092801003031323334353637C2
:103AF000383961626364656600000000303132333A
:103B000034353637383941424344454600000000D9
:103B100000F058F90544761C307800287FF4ECADAD
:103B200019B02846BDE8F08F620700D4062709F1D6
:103B3000070222F0070CFCE80223E14603F00048EC
:103B40005FEA080C02D00FF2702C0DE05FEA045C13
:103B500002D50FF2682C07E05FEAC47C02D00FF2B6
:103B6000602C01E0AFF2700C4FF0FF3823F00043FF
:103B7000CDF850C065280CD006DC452809D0462871
:103B80001DD047283DD13DE0662818D067287ED15A
:103B900038E00021112F01DB112000E0781CCDE975
:103BA000000106A90EA8FFF7DDFCDDE90F010E9A62
:103BB00003910021009207F1010A04914DE04FF0BA
:103BC00000400097CDE9011006A90EA8FFF7CAFC36
:103BD000DDE90F0203920E9B11990022DDF80CA083
:103BE0000093049211B9791C00EB010AB7EB0A00AB
:103BF00004D4C0F1FF3007F1010A0490AAEB0700DA
:103C0000019044E0012F00DA01270021112F01DD8E
:103C1000112000E03846CDE9000106A90EA8FFF703
:103C2000A1FCDDE90F010E9A03910021049100929D
:103C3000BA4621070CD40399514500DA8A46BAF1F5
:103C4000010F05DD009AAAF10101515C302908D06D
:103C5000B84202DA10F1040F06DA0121CDE90110B1
:103C600015E0AAF10101E9E7002805DC0499014407
:103C70000491AAEB000102E0411C514500DD8A4697
:103C80000499401A401C01904FF000400290200718
:103C900004D40198504501DBCDF8048000208DF854
:103CA0004F0002980DF14F07B0F1004F25D02B20A7
:103CB0000E9002984FF0020800280CDA4042029061
:103CC0002D200E9007E00A210298FCF716FE3031F5
:103CD000029007F8011DB8F10001A8F10108F2DC1B
:103CE00002980028EFD1791E0E980870307800F005
:103CF000200040F0450007F8020D12A8C01B00F19B
:103D000007081498007800B1012000EB0A0101981F
:103D100001EBE07105984144401A401E0590E00314
:103D200006D45B462146179A059800F05DF80544D5
:103D30001498007818B15A46179990476D1CE00303
:103D400024D55B462146179A059800F04DF80544A6
:103D50001CE00498002807DBDDE90301884203DD4D
:103D60000098405C179901E0179930205A46904717
:103D7000049805F10105401C04900198401E019033
:103D800004D12E205A46179990476D1CBAF10001B4
:103D9000AAF1010ADDDC05E017F8010B5A46179974
:103DA00090476D1CB8F10001A8F10108F4DC5B46F6
:103DB0002146179A0598ABE62D0000002B00000065
:103DC000200000002DE9F041044600251E4617465C
:103DD000880404D405E039462020B0476D1C641ED9
:103DE000F9D52846BDE8F0812DE9F04104460025CB
:103DF0001E469046C80301D5302700E020278804DE
:103E000004D505E041463846B0476D1C641EF9D51F
:103E10002846BDE8F081000070B50546304800EB4B
:103E200005142846FEF7DEFB00283ED02079052841
:103E300002DA0520207152E020790A2803DA20797D
:103E4000401C20714BE0A07A38B90120A07205EB2C
:103E50004501491CC8B200F071FA208900283EDDF6
:103E6000E088218988420DDAE088401C80B2E08039
:103E70002189884233D105EB4501C91CC8B200F045
:103E80005DFA2CE0E07A002829DD207B401CC0B2DE
:103E90002073E17A884222DB0020207305EB450184
:103EA000491CC8B200F04AFA19E02079052802DD61
:103EB0000520207110E0207918B12079401E207172
:103EC0000AE0A07A012807D10020A07205EB450185
:103ED000891CC8B200F032FA0020E080207370BD67
:103EE000588600200B48807A0A4AD27A904201D143
:103EF000002070470748807A064A115C1046807A95
:103F0000401CC0B290720A2801DB00209072084663
:103F1000EFE70000F886002010B500F069F800F027
:103F200089F900F0ADF900F01FF910BDF0B591B0BE
:103F3000402101A8FCF7BAFC4FF0804500BF0020EB
:103F400000901F48006840F001001D4908600846C5
:103F5000006800F00100009000BF00BF1948006831
:103F600047081948B7FBF0F0401E86B2B5F1804F04
:103F700002D01648854202D14FF0FF3401E04FF6DF
:103F8000FF74019502960494002105910391069116
:103F90008021079101A8FEF75EF920B140F22521AA
:103FA0000BA0FDF722F8022200211C20FDF741FDA5
:103FB0001C20FDF72EFD01A8FEF769F911B0F0BD38
:103FC00040380240A485002040420F00000C004011
:103FD0002E2E5C2E2E5C557365725C6273705C7362
:103FE00072635C6273705F74696D65722E6300004A
:103FF00010B500F07DF800F001F810BD10B586B0E6
:1040000000BF002000903848006840F004003649A6
:1040100008600846006800F00400009000BF00BF80
:1040200000BF002000900846006840F020000860B3
:104030000846006800F02000009000BF00BF00BFED
:10404000002000900846006840F0800008600846A4
:10405000006800F08000009000BF00BF00BF00209B
:1040600000900846006840F040000860084600687C
:1040700000F04000009000BF00BF00BF0020009093
:104080000846006840F0800008600846006800F0BC
:104090008000009000BF00BF00BF002000900846D5
:1040A000006840F4807008600846006800F4807082
:1040B000009000BF00BF00200290039003200490F6
:1040C00000240CE0094800EBC400808801900749F7
:1040D00051F8340001A9FDF703FB601CC4B2082CA1
:1040E000F0DB06B010BD000030380240745F0008FD
:1040F00010B500201A498872C8720873002418E0AD
:104100006420184901EB041108810220154901EBD4
:10411000041108710020134901EB04118872114940
:1041200001EB0411C8720F4901EB04110873601C04
:10413000C4B20A2CE4DB06226421032000F014F947
:1041400006226421042000F00FF9062264210520D4
:1041500000F00AF906226421104600F005F910BDAE
:10416000F88600205886002000B587B000BF0020E8
:1041700001902C48006840F004002A490860084675
:10418000006800F00400019000BF00BF00BF0020E5
:1041900001900846006840F020000860084600686A
:1041A00000F02000019000BF00BF00BF0020019080
:1041B0000846006840F4807008600846006800F413
:1041C0008070019000BF00BF012000F06DF8022058
:1041D00000F06AF8032000F067F8042000F064F8AB
:1041E00001200390002004900220059040020290DC
:1041F00002A90D48FDF774FA8020029002A90B482D
:10420000FDF76EFA4FF48070029002A90748FDF79F
:1042100067FA0420029002A90548FDF761FA07B089
:1042200000BD00003038024000200240001402406F
:104230000008024010B5002416E0002004EB440101
:104240000D4A02EB8101486004EB440102EB81015D
:10425000886004EB440102EB8101487004EB4401E7
:1042600002F82100601CC4B2042CE6DB01200349E3
:104270000870FFF75BFE10BD0887002094850020C2
:1042800010B5FFF76BF8FEF7EBF8FEF7BFFA10BDBD
:1042900010B5002404E02046FFF7BEFD601CC4B248
:1042A0000A2CF8DB10BD0000411EC8B220B94FF443
:1042B00080610A4A916110E0012803D18021084AF7
:1042C00011600AE0022803D1C101054A116004E02F
:1042D000032802D10421034A1160704700200240E4
:1042E0001814024018080240012806D110494969F3
:1042F00081F480610E4A516119E0022806D10D490E
:10430000096881F080010B4A116010E0032806D192
:104310000849096881F48071064A116007E00428A1
:1043200005D10549096881F00401034A116070470D
:104330000020024014140240140802400649C97AC1
:10434000054A50541146C97A491CC9B2D1720A298A
:1043500001DB0021D1727047F886002010B5FFF70D
:1043600097FF10BD7047000010B5074B03EB00131B
:104370001981054B03EB0013DA720023024C04EBA6
:104380000014237310BD000058860020F0B591B0D2
:1043900004460D4617461E46402101A8FCF786FA42
:1043A00001940295002103910491059707910696C7
:1043B000089101A8FDF795FF20B140F2BA2102A0B3
:1043C000FCF713FE11B0F0BD2E2E5C2E2E5C557343
:1043D00065725C6273705C7372635C6273705F754C
:1043E0006172745F6669666F2E630000416851B147
:1043F0004168491E416031B90121417001780129AC
:1044000001D181684160704770B505460C4605488A
:10441000844203D1284601F00DF870BD4FF0FF3003
:10442000FBE70000B08500202DE9F05F05460F4650
:1044300090469A4600BF00BF2E4636B13078FA2823
:1044400003D117B1BAF1000F08D06FF00301304665
:10445000FCF7C4FF6FF00300BDE8F09F3046FEF7A5
:104460001EF90446CCB104F10C013846726AFCF71F
:1044700004FAB8F1000F02D0E07888F80000E66096
:1044800000BF00BFA346584600F040FC3946304606
:10449000FDF742F84FF0000905E039463046FDF7D8
:1044A00005F86FF002094846D6E72DE9F05F0646A9
:1044B0000F4691469A4600BF00BF354635B1287871
:1044C000FA2803D117B1BAF1000F08D06FF0030139
:1044D0002846FCF783FF6FF00300BDE8F09F05F16D
:1044E0000C0000F08AFA0446D4B1394604F10C00FD
:1044F0006A6AFCF7C2F9F92020700020A07084F8E5
:1045000003906760A56000BF00BFA346584600F057
:10451000FDFB39462846FCF795FF4FF0000805E003
:1045200039462846FCF7B6FF6FF002084046D4E74C
:1045300070B50B48B0F854605630FBF7F3FF58B134
:10454000314607485A30FBF7CAFF05460448C06D9C
:1045500050F8254000BF00E00024204670BD000058
:10456000B48500202DE9F04106460C48B0F854709F
:1045700039465630FBF7A4FFB8420BDA39460748F4
:104580005830FBF7ACFF04460448C06D40F8246087
:10459000012500E000252846BDE8F081B485002013
:1045A000FEF758FBFDF728FE00F064F8054A0021ED
:1045B000054800F019FF0549086000F077F800BFD2
:1045C000FEE70000C05E0008790E0008608500204C
:1045D00070B505462846FCF70FFEFDF7E3FF10B95E
:1045E000FDF7B0FF30B16FF00500FCF719FE6FF07A
:1045F000050406E000BF2846DFF80CC000DF0446D3
:1046000000BF204670BD00004554000870B5054647
:104610002846FCF719FEFDF7C5FF10B9FDF792FF1C
:1046200030B16FF00500FCF7FBFD6FF0050406E00C
:1046300000BF2846DFF80CC000DF044600BF20465C
:1046400070BD00007154000810B5FDF7B3FF10B93C
:10465000FDF784FF18B100F02FFF044605E000BF0E
:10466000DFF80CC000DF044600BF204610BD00008C
:10467000B954000810B500F0D5F8FCF717FEFDF7A7
:1046800099FF10B9FDF76AFF30B16FF00500FCF734
:10469000F9FD6FF0050405E000BFDFF80CC000DF96
:1046A000044600BF204610BDCD54000810B5FCF7ED
:1046B00011FEFDF77FFF10B9FDF750FF30B16FF02D
:1046C0000500FCF7DFFD6FF0050405E000BFDFF833
:1046D0000CC000DF044600BF204610BDF1560008A4
:1046E0002DE9F04180460D4616461F463B463246B0
:1046F00029464046FCF77CFEFDF764FF10B9FDF744
:1047000039FF38B13B46324629464046FFF78CFE1A
:10471000044609E000BF3B46324629464046DFF8E2
:1047200010C000DF044600BF2046BDE8F081000055
:10473000C95700082DE9F04107460D461646324696
:1047400029463846FCF796FEFDF73CFF10B9FDF709
:1047500011FF30B16FF005010020FCF73FFE00248F
:1047600008E000BF324629463846DFF810C000DFB7
:10477000044600BF2046BDE8F08100000159000852
:104780002DE9F04180460D4616461F463B4632460F
:1047900029464046FCF796FEFDF714FF10B9FDF7D9
:1047A000E9FE38B13B46324629464046FFF77DFEDA
:1047B000044609E000BF3B46324629464046DFF842
:1047C00010C000DF044600BF2046BDE8F0810000B5
:1047D000955A0008062809D2DFE800F0080304050E
:1047E000060704E003E002E001E000E000BF00BFD4
:1047F00000BFFEE700BF012080F3108800BF05481E
:104800000068401C03490860002080F3108800BF46
:10481000F1E70000688500200148007A7047000039
:10482000B485002070472DE9F84F0446894690462C
:104830002CB1B9F1000F02D028F0030040B10023E1
:10484000424649462046FCF759FD0020BDE8F88F56
:1048500009F10807F81D20F0070708212046FDF799
:1048600017FF054600BF2868A0EB050A686820F01E
:104870000300AAEB000ABA4500D30BE02D682868B4
:104880000028F0D10023424649462046FCF736FD79
:104890000020DBE700BF00BF00BF201D6168394476
:1048A000616000BF00BF2068A0F1080B5946204698
:1048B000FDF7EEFE064600BF00BF616870688142EA
:1048C00003D900BF00BF60687060686840B947EAFC
:1048D0000800686008212846FDF7DAFE009011E024
:1048E000686820F003012846FDF7D2FE06462868D6
:1048F000306047EA080070602E6008213046FDF7FE
:10490000C7FE0090424649462046009BFCF7F6FC55
:1049100000989BE72DE9F04105460F4605B13FB9E8
:10492000002239462846FCF725FD0020BDE8F0812D
:1049300000213846FDF7ACFE8046A8F108080026A5
:1049400008212846FDF7A4FE044609E0264624680F
:1049500034B9002239462846FCF70CFD0020E5E773
:104960004445F3D100BF00BF281D6968626822F08A
:104970000302891A696016B90020606001E02068AE
:104980003060012239462846FCF7F4FC0120CDE7CF
:104990002DE9F04104460D463CB104F0070020B972
:1049A00005F0070008B9182D07D200222946204635
:1049B000FCF7F0FC0020BDE8F08100BF00BF2746F7
:1049C0003D601020786008212046FDF761FE064614
:1049D000A5F108012046FDF75BFE3060002031683C
:1049E000086010203168486000207060012229466C
:1049F0002046FCF7CFFC0120DDE770B504462CB95A
:104A000000210846FCF78AFC002070BD04F1140068
:104A1000FBF74DFC054615B1201DFBF700FC2946B0
:104A20002046FCF77BFC2846EFE770B504460D46B0
:104A30002CB1E068A84202D82069A84208D86FF0DB
:104A4000030229462046FCF775FC6FF0030070BD99
:104A5000294604F11400FBF737FC201DFBF704FC8A
:104A6000002229462046FCF765FC0020EFE72DE9EF
:104A7000F04704460F4690461E4624B11FB1B8F1D8
:104A8000000F00D016B90020BDE8F0872760002095
:104A90006060C4F80880E660666107FB086020611A
:104AA0003346424639462046FCF754FC354604E07E
:104AB00005EB0809C5F800904D46781E071EF7D192
:104AC00028600120E0E72DE9F05F0546A87800287E
:104AD0003CD0EC6829462046FDF721FE00202870D6
:104AE000294604F10C00FFF7A0FFA06800286CD055
:104AF00004F10C00FFF781FF0646002E65D000BFD1
:104B000000BFA346584600F0A7FA8046002211468F
:104B1000404600F097FB404600F012FB0746D7F8EE
:104B20000890494606F10C00626AFBF7A6FEF920E0
:104B300030700020B070387BF07031462046FDF7B1
:104B4000C8FD49462046FCF789FC3EE0AC68D5F834
:104B50000490A06880B3A068407883282DD149468E
:104B60002046FCF77BFC00BF00BFA346584600F080
:104B700073FA804600221146404600F063FB40462F
:104B800000F0DEFA0746D7F808A005F10C01504600
:104B9000626AFBF772FEF86810B1E878F96808708D
:104BA00051462046FCF7B8FC00202870294604F145
:104BB0000C00FFF73AFF08E0FFE749462046FCF704
:104BC0004DFC29462046FDF784FDBDE8F09F2DE908
:104BD000F0410646344629E06769E07800F00800B5
:104BE00018B30020207600212046FCF7B7FCA0680F
:104BF000D8B100BF00BFA046404600F02DFA0546E0
:104C000000221146284600F01DFBE56000202061CF
:104C1000E86A6061E86A08B1E86A0461EC62012050
:104C2000207601212046FCF78DFC3C46002CD3D198
:104C3000BDE8F0812DE9F0478046894698F80300E9
:104C400000F00200E0B1D8F80C4094F92170E66A57
:104C500000BFB5684D4500D1AD682DB195F9200074
:104C6000B84201DD95F920707669002EF1D194F9F2
:104C70002000B84204D084F82070204600F024FAC6
:104C8000BDE8F08770B500BFFFF752FC044604B9D9
:104C900034E02078F13809282ED2DFE800F0052D25
:104CA0000D2D2D151D2D250000BF00BF25461648D2
:104CB000016E2846884720E000BF00BF2546124805
:104CC000416E2846884718E000BF00BF25460E48C1
:104CD000816E2846884710E000BF00BF25460A487D
:104CE000C16E2846884708E000BF00BF2546064839
:104CF000016F2846884700E000BFC5E700BF0020DD
:104D000000F03CF970BD0000B485002010B50446E9
:104D10002046FFF727FC68B10948407A30B900BF48
:104D20004FF080500749086000BF07E001210448A8
:104D3000817203E021460220FFF74CFD10BD000008
:104D4000B485002004ED00E02DE9F0410446012087
:104D5000607094F920700B4800BF0646B56801E00A
:104D60002E46AD681DB195F92000B842F8DCE6602A
:104D7000A560B46005B1EC602046FCF777FCBDE8A7
:104D8000F0810000D085002010B502460B465C1C67
:104D90008CB90021154C206B01E001460069002808
:104DA000FBD1D36151610024146109B10A611BE098
:104DB0000E4C226318E000210C4CE06A03E0C46949
:104DC0001B1B0146006910B1C4699C42F7D9D3612D
:104DD0005161106109B10A6101E0044CE26218B14D
:104DE000C469E41AC461426110BD0000B4850020AA
:104DF000C169491C81B9016911B1D0E9042151612E
:104E0000416929B1D0E9041211610021416119E021
:104E10000D4902690A6315E0016941B10169C96977
:104E2000C26911440269D161D0E90421516141692B
:104E300029B1D0E9041211610021416102E0024967
:104E40000269CA6270470000B485002070B54A4804
:104E5000C56A05B970BDE869401EE861E8690028C7
:104E60007ED100BF6878632836D008DC13280DD0C7
:104E700033280FD0432811D053285DD11AE073286E
:104E800036D0832840D0932856D149E02846FCF7F5
:104E9000BDF952E02846FCF7C5FB4EE0284600F07D
:104EA0000BF9064600BF3446204600BF0646FCF715
:104EB000DFF942E0284600F0FFF8064600BF34461E
:104EC000204600BF06462946FFF7B4FE204600BF35
:104ED0000646FCF72DFB30E0284600F0EDF80646CC
:104EE00000BF3446204600BF0646FCF743FB24E0E3
:104EF000284600F0E1F8064600BF3446204600BFD1
:104F00000646FCF755FA18E0284600F0D5F80646A4
:104F100000BF3446204600BF0646FCF789FA0CE085
:104F2000284600F0C9F8064600BF3446204600BFB8
:104F30000646FCF7E7FA00E000BF00BF284600F095
:104F4000FFF8066831462846FCF7A4FB284600F027
:104F5000A6F8284600F0E8F82D692DB1E86900E0D0
:104F600007E000283FF47EAF0DB1002068610248E1
:104F7000C56200BF6EE70000B48500202DE9F04156
:104F80000546FFF749FC074600F060F80646A5B95C
:104F90001448446A022F22D10CB394F9200096F9E8
:104FA000201088421BDD204600F079F83046FFF7DC
:104FB000CBFE204600F012F911E0022F0CD195F93A
:104FC000200096F92010884206DD3046FFF7BCFE2F
:104FD000284600F003F902E0284600F0A5F8BDE8F5
:104FE000F0810000B485002010B5044600206070F8
:104FF0002070A07800F0020078B1A07800F01000D6
:1050000030B1114A216BD2F88400FFF70EFD04E0A5
:105010000D4A216B506FFFF77DFCA07800F0010076
:1050200080B10948D0F8880030B10749D1F888002C
:105030002146FFF7FAFC05E00349D1F8800021463C
:10504000FFF768FC10BD0000B485002001484069EE
:1050500070470000B48500200146886882688A6035
:1050600082681AB100BF00BF8268D1600022C260AE
:10507000704730B5024691F9204000BF00BF13468B
:10508000986801E00346806818B190F92050A54265
:10509000F8DACB608860996000B1C16030BDC1684A
:1050A00049B1D0E902129160816811B1D0E90221C1
:1050B000D1600021C16070470146084600E0C06829
:1050C0000278F12AFBD0704770B50646344600E0FE
:1050D000E46814B12078F128FAD000BF00BF25465B
:1050E00035B13046FFF7DBFF31462846FFF7C1FFF9
:1050F00070BD70B504466078332813D194F823202E
:105100002046616AFDF79AFE05465DB100222946F8
:10511000204600F097F894F8231023462A46606A48
:10512000FCF770FA70BD000010B5044601206070F5
:1051300021460248FFF79DFF10BD0000D0850020EA
:10514000014691F8222002F010030BB9602300E021
:1051500020238A6B98187047014948617047000006
:10516000B485002010B5FFF771FF044664B1216BD0
:10517000A06B884204D9206B00680449884203D0A0
:1051800021460120FFF726FB10BD0000A52E5AE2A4
:1051900070B501250D480021826D0D4800F054FDC9
:1051A000044600BF0B4884620848406E60B107485F
:1051B0000021C26D084800F047FD044600BF0548C5
:1051C0008464806C00B90025284670BDB860000872
:1051D000F5470008B48500201D53000810B50446AB
:1051E0000220607003488461FFF7BCFF2046FCF793
:1051F00047FA10BDB485002070B504460E46FFF78F
:105200000BFB022801D0002070BD0D48406A08B990
:105210000020F9E7FFF71AFF054631462846FCF75C
:10522000B3F96C7031462846FFF7AEFD04481C30D8
:10523000FFF712FF05462846FFF7D0FF0120E3E7FE
:10524000B48500202DE9F04106460C46154621465E
:105250003046FCF71FFA3046FFF772FF07463C6006
:105260003046FFF7C5FD1DB13046FFF787FE02E06F
:105270003046FFF759FFBDE8F081000010B5FDF79B
:105280007DFA2548C068401C2349C8600846006D67
:1052900008B1086D8047FFF7D9FD0020FFF76EFECB
:1052A0001D48006C002835D01B48816B8069814205
:1052B00005D0194881698163016CC1632AE01648F1
:1052C000C06B18B11448C16B491EC1631248C06B52
:1052D00000BB00BF1048007A02281BD10E48446A68
:1052E000C4B194F92010806B90F92000814211D153
:1052F0002046FFF7D4FE0849886BFFF715FF0649E3
:10530000886BFCF7B3F92046FFF768FF0248846317
:10531000016CC16310BD0000B48500201CB51049AC
:105320000A6E486E0821FFF705FA054600BF0D48D2
:10533000C5640D49016500BF0A494FF0FF330022E3
:10534000C86C6946FFF7CCF90446002CF4D1DDE9BE
:105350000001FCF7ABF9DDE900108847ECE700003D
:10536000B8600008B48500206D53000870B515487A
:10537000446C04B970BD2069401E20611CE02046C9
:10538000FDF7A8FD0F4900231A46C86C04F1180167
:10539000FFF7F6F905461DB121460320FFF71AFA7B
:1053A000E078012804D120466169FDF773FD01E032
:1053B000012060700348446C14B120690028DED0DD
:1053C00000BFD7E7B4850020FCF712F900BFDFF873
:1053D00014C000DF00BF4FF0FF310020FCF7FEF8E3
:1053E00000BFFEE7BD5B00082DE9F04107460D4612
:1053F0001646324629463846FCF728F9FDF7EAF802
:1054000010B9FDF7C3F830B16FF005010020FCF7CB
:10541000E5F8002408E000BF324629463846DFF8A8
:1054200010C000DF044600BF2046BDE8F081000048
:10543000495C000801B5012269460020FDF7B2FA77
:10544000009808BD70B5044674B121461320FFF7DB
:10545000D3FE18B12046FBF7EDFE05E000BF034880
:1054600040690546FBF7D2FE002070BDB4850020E0
:1054700070B504460F48C068241A14B1B4F1004F47
:1054800006D36FF00300FBF7CBFE6FF0030070BD97
:1054900021461320FFF7B0FE18B12046FBF7DEFED1
:1054A00005E000BF034840690546FBF7AFFE00205A
:1054B000EDE70000B485002010B50349C868FBF78C
:1054C000EBFE0148C06810BDB485002010B58648C9
:1054D000007A012803D1FBF7F3FE002010BD8248BB
:1054E000007A30B14FF0FF30FBF7CCFE4FF0FF30C9
:1054F000F4E79C217C480830FBF7D8F97B48C16869
:105500007948C1657948008A7749A1F854007748FD
:10551000816875480164754A116BD06AFFF738FAE3
:1055200020B17248C16A7048C0F880106F4A916912
:105530005069FFF72DFA20B16C4840696A49486705
:1055400004E06948D0F8800067494867674A116AF3
:10555000D069FFF71DFA20B16448C16962488167CC
:1055600003E06148D0F880108167604A916A506A10
:10557000FFF70EFA20B15D48416A5B48C16703E05E
:105580005948D0F88010C1675848406B88B1574CD3
:10559000646BE368554C646BA268544C646B21687F
:1055A000524C606BFFF763FA2046406B4E49C1F8DE
:1055B00084004E48806B88B14C4CA46BE3684B4C24
:1055C000A46BA268494CA46B2168484CA06BFFF700
:1055D0004EFA2046816B4448C0F888104348C06B9F
:1055E00088B1424CE46BE368404CE46BA2683F4CEA
:1055F000E46B21683D4CE06BFFF739FA2046C16B44
:105600003948C0F88C103948006C88B1374C246C8C
:10561000E368364C246CA268344C246C2168334C0B
:10562000206CFFF724FA2046016C2F48C0F8901038
:105630002E48406C88B12D4C646CE3682B4C646C34
:10564000A2682A4C646C2168284C606CFFF70FFA42
:105650002046416C2448C0F894102448806C88B1DE
:10566000224CA46CE368214CA46CA2681F4CA46C6F
:1056700021681E4CA06CFFF7FAF92046816C1A488D
:10568000C0F898101948C06C88B1184CE46CE368F5
:10569000164CE46CA268154CE46C2168134CE06C69
:1056A000FFF7E5F92046C16C0F48C0F89C100F4881
:1056B000006D88B10D4C246DE3680C4C246DA2681C
:1056C0000A4C246D2168094C206DFFF7D0F9204663
:1056D000016D0548C0F8A010012003490872FBF7CE
:1056E000EFFD0020FAE60000B4850020B860000855
:1056F00010B53148007A012806D06FF00600FBF79C
:10570000C1FD4FF0FF3010BDFFF742FD30B94FF043
:10571000FF30FBF7B7FD4FF0FF30F4E700BFFF238A
:10572000264A9372927A62F0FF02D243B2FA82F270
:10573000C2F1200100BF214A0C3A1268C2F30222D2
:105740001046884200D3411CFE228A40D3B21B4A35
:10575000183AD37700BF1A4948681A49FDF72EF85E
:1057600030B14FF0FF30FBF78DFD4FF0FF30CAE74F
:10577000FDF720F810490861FDF704F80E481C30C9
:10578000FFF76AFC04462046FFF728FD0C48007826
:1057900000F0010020B1022080F3148800BF04E073
:1057A000032080F3148800BF00BF02200249087262
:1057B000FBF79AFD0020A6E7B485002018ED00E075
:1057C000B8600008FD0700082DE9FF5F074688461E
:1057D00091469A4600BF00BF3C462CB12078FA287B
:1057E00002D1B8F1000F09D16FF003012046FBF799
:1057F000F5FD6FF0030004B0BDE8F09F2046FCF714
:105800004EFF0546002D4BD029462046FCF787FF6A
:1058100005F10C014046626AFBF72FF8B9F1000F61
:1058200002D0E87889F8000041462046FBF774FE74
:1058300000202870294604F10C00FFF7F6F8A06854
:1058400058B304F10C00FFF7D8F805462DB300BF9C
:1058500000BF20460194FFF7FFFB039001220021C7
:105860000398FFF7EFFC0398FFF76AFC0646B06861
:105870000290626A05F10C000299FAF7FEFFF92026
:1058800028700020A870307BE87029462046FCF77D
:1058900020FF20460299FBF7E1FD4FF0000B2BE0C3
:1058A000BAF1000F22D0524641462046FBF7B0FD28
:1058B00051468320FFF7A0FC90B100BF0F4840691C
:1058C000019000BF009420460199FFF7D2FB00BF72
:1058D000EFF309800646C6F80880C6F80C9002E08F
:1058E0002046FBF7A5FD6FF0010B05E04146204681
:1058F000FBF7DCFD6FF0020B58467CE7B485002017
:105900002DE9FC5F07468946154617B1B9F1000F2E
:1059100007D16FF003010020FBF760FD0020BDE818
:10592000FC9F09F1030020F0030000F10C0AB7FA14
:1059300087F0BAFA8AF10844202806D26FF00301F2
:105940000020FBF74BFD0020E9E707FB0AF0009081
:10595000A5B3D5F800B0AC682E696869019064B150
:1059600004F0030010B9E86834280FD26FF0080182
:105970000020FBF733FD0020D1E7E86830B16FF07D
:1059800008010020FBF72AFD0020C8E76EB106F0F1
:10599000030018B9DDE90010884214D26FF0090144
:1059A0000020FBF71BFD0020B9E7019858B16FF00C
:1059B00009010020FBF712FD0020B0E7FFE74FF0E0
:1059C000000B00240026ACB93048D0F8A00030B15C
:1059D0002E49D1F8A000FFF710F8044607E02B4944
:1059E0000122D1F880003421FEF71DFF04464FF05C
:1059F000010801E04FF0000824B31EBB2349002238
:105A0000C86F0099FEF70FFF0646AEB908F0010017
:105A100080B11E48D0F8A00030B11C49D1F8A000D8
:105A20002146FFF702F805E01849D1F88000214629
:105A3000FEF770FF002403E030460099FAF736FFC6
:105A400048F00208DCB1FA20207084F80280C4F823
:105A500004B00020A060C4F82490A062E06220633B
:105A600033465246394604F10C00FFF700F8084966
:105A70000648016720466168FBF7A4FC04E06FF06C
:105A800004010020FBF7AAFC204648E7B48500206B
:105A9000C74A00082DE9FF5F07468B4691469A46A4
:105AA00000BF00BF3C462CB12078FA2802D1BBF1E0
:105AB000000F09D16FF003012046FBF78FFC6FF058
:105AC000030004B0BDE8F09FA06850B3A068407820
:105AD000832826D159462046FBF7C0FC00BF00BFF3
